{
  "_format": "hh-sol-artifact-1",
  "contractName": "ProfessionalValidation",
  "sourceName": "contracts/sbt.sol",
  "abi": [
    {
      "inputs": [],
      "stateMutability": "nonpayable",
      "type": "constructor"
    },
    {
      "anonymous": false,
      "inputs": [
        {
          "indexed": true,
          "internalType": "address",
          "name": "owner",
          "type": "address"
        },
        {
          "indexed": true,
          "internalType": "address",
          "name": "approved",
          "type": "address"
        },
        {
          "indexed": true,
          "internalType": "uint256",
          "name": "tokenId",
          "type": "uint256"
        }
      ],
      "name": "Approval",
      "type": "event"
    },
    {
      "anonymous": false,
      "inputs": [
        {
          "indexed": true,
          "internalType": "address",
          "name": "owner",
          "type": "address"
        },
        {
          "indexed": true,
          "internalType": "address",
          "name": "operator",
          "type": "address"
        },
        {
          "indexed": false,
          "internalType": "bool",
          "name": "approved",
          "type": "bool"
        }
      ],
      "name": "ApprovalForAll",
      "type": "event"
    },
    {
      "anonymous": false,
      "inputs": [
        {
          "indexed": true,
          "internalType": "address",
          "name": "from",
          "type": "address"
        },
        {
          "indexed": true,
          "internalType": "address",
          "name": "to",
          "type": "address"
        },
        {
          "indexed": true,
          "internalType": "uint256",
          "name": "tokenId",
          "type": "uint256"
        }
      ],
      "name": "Transfer",
      "type": "event"
    },
    {
      "inputs": [
        {
          "internalType": "string",
          "name": "name",
          "type": "string"
        },
        {
          "internalType": "string",
          "name": "description",
          "type": "string"
        },
        {
          "internalType": "address",
          "name": "institute_adress",
          "type": "address"
        }
      ],
      "name": "addInstitute",
      "outputs": [],
      "stateMutability": "nonpayable",
      "type": "function"
    },
    {
      "inputs": [
        {
          "internalType": "address",
          "name": "_to",
          "type": "address"
        },
        {
          "internalType": "uint256",
          "name": "_tokenId",
          "type": "uint256"
        }
      ],
      "name": "approve",
      "outputs": [],
      "stateMutability": "nonpayable",
      "type": "function"
    },
    {
      "inputs": [
        {
          "internalType": "address",
          "name": "owner",
          "type": "address"
        }
      ],
      "name": "balanceOf",
      "outputs": [
        {
          "internalType": "uint256",
          "name": "",
          "type": "uint256"
        }
      ],
      "stateMutability": "view",
      "type": "function"
    },
    {
      "inputs": [
        {
          "internalType": "uint256",
          "name": "_tokenId",
          "type": "uint256"
        }
      ],
      "name": "getApproved",
      "outputs": [
        {
          "internalType": "address",
          "name": "",
          "type": "address"
        }
      ],
      "stateMutability": "view",
      "type": "function"
    },
    {
      "inputs": [],
      "name": "instituteCount",
      "outputs": [
        {
          "internalType": "uint256",
          "name": "",
          "type": "uint256"
        }
      ],
      "stateMutability": "view",
      "type": "function"
    },
    {
      "inputs": [
        {
          "internalType": "address",
          "name": "owner",
          "type": "address"
        },
        {
          "internalType": "address",
          "name": "operator",
          "type": "address"
        }
      ],
      "name": "isApprovedForAll",
      "outputs": [
        {
          "internalType": "bool",
          "name": "",
          "type": "bool"
        }
      ],
      "stateMutability": "view",
      "type": "function"
    },
    {
      "inputs": [
        {
          "internalType": "address",
          "name": "_admin",
          "type": "address"
        }
      ],
      "name": "is_admin",
      "outputs": [
        {
          "internalType": "bool",
          "name": "",
          "type": "bool"
        }
      ],
      "stateMutability": "view",
      "type": "function"
    },
    {
      "inputs": [
        {
          "internalType": "address",
          "name": "_institute",
          "type": "address"
        }
      ],
      "name": "is_institute",
      "outputs": [
        {
          "internalType": "bool",
          "name": "",
          "type": "bool"
        }
      ],
      "stateMutability": "view",
      "type": "function"
    },
    {
      "inputs": [
        {
          "internalType": "address",
          "name": "receiver",
          "type": "address"
        },
        {
          "internalType": "string",
          "name": "exp_type",
          "type": "string"
        },
        {
          "internalType": "string",
          "name": "title",
          "type": "string"
        },
        {
          "internalType": "string",
          "name": "description",
          "type": "string"
        },
        {
          "internalType": "string",
          "name": "start_date",
          "type": "string"
        },
        {
          "internalType": "string",
          "name": "end_date",
          "type": "string"
        }
      ],
      "name": "mint",
      "outputs": [
        {
          "internalType": "bool",
          "name": "",
          "type": "bool"
        }
      ],
      "stateMutability": "nonpayable",
      "type": "function"
    },
    {
      "inputs": [],
      "name": "name",
      "outputs": [
        {
          "internalType": "string",
          "name": "",
          "type": "string"
        }
      ],
      "stateMutability": "view",
      "type": "function"
    },
    {
      "inputs": [
        {
          "internalType": "uint256",
          "name": "tokenId",
          "type": "uint256"
        }
      ],
      "name": "ownerOf",
      "outputs": [
        {
          "internalType": "address",
          "name": "",
          "type": "address"
        }
      ],
      "stateMutability": "view",
      "type": "function"
    },
    {
      "inputs": [
        {
          "internalType": "address",
          "name": "_from",
          "type": "address"
        },
        {
          "internalType": "address",
          "name": "_to",
          "type": "address"
        },
        {
          "internalType": "uint256",
          "name": "_tokenId",
          "type": "uint256"
        }
      ],
      "name": "safeTransferFrom",
      "outputs": [],
      "stateMutability": "nonpayable",
      "type": "function"
    },
    {
      "inputs": [
        {
          "internalType": "address",
          "name": "_from",
          "type": "address"
        },
        {
          "internalType": "address",
          "name": "_to",
          "type": "address"
        },
        {
          "internalType": "uint256",
          "name": "_tokenId",
          "type": "uint256"
        },
        {
          "internalType": "bytes",
          "name": "_data",
          "type": "bytes"
        }
      ],
      "name": "safeTransferFrom",
      "outputs": [],
      "stateMutability": "nonpayable",
      "type": "function"
    },
    {
      "inputs": [
        {
          "internalType": "address",
          "name": "_operator",
          "type": "address"
        },
        {
          "internalType": "bool",
          "name": "_approved",
          "type": "bool"
        }
      ],
      "name": "setApprovalForAll",
      "outputs": [],
      "stateMutability": "nonpayable",
      "type": "function"
    },
    {
      "inputs": [
        {
          "internalType": "bytes4",
          "name": "interfaceId",
          "type": "bytes4"
        }
      ],
      "name": "supportsInterface",
      "outputs": [
        {
          "internalType": "bool",
          "name": "",
          "type": "bool"
        }
      ],
      "stateMutability": "view",
      "type": "function"
    },
    {
      "inputs": [],
      "name": "symbol",
      "outputs": [
        {
          "internalType": "string",
          "name": "",
          "type": "string"
        }
      ],
      "stateMutability": "view",
      "type": "function"
    },
    {
      "inputs": [
        {
          "internalType": "uint256",
          "name": "tokenId",
          "type": "uint256"
        }
      ],
      "name": "tokenURI",
      "outputs": [
        {
          "internalType": "string",
          "name": "",
          "type": "string"
        }
      ],
      "stateMutability": "view",
      "type": "function"
    },
    {
      "inputs": [
        {
          "internalType": "address",
          "name": "_from",
          "type": "address"
        },
        {
          "internalType": "address",
          "name": "_to",
          "type": "address"
        },
        {
          "internalType": "uint256",
          "name": "_tokenId",
          "type": "uint256"
        }
      ],
      "name": "transferFrom",
      "outputs": [],
      "stateMutability": "nonpayable",
      "type": "function"
    }
  ],
  "bytecode": "0x60806040523480156200001157600080fd5b506040518060400160405280601b81526020017f50726f66657373696f6e616c20457870657269656e63652053425400000000008152506040518060400160405280600681526020017f455850534254000000000000000000000000000000000000000000000000000081525081600090816200008f919062000365565b508060019081620000a1919062000365565b50505033600760006101000a81548173ffffffffffffffffffffffffffffffffffffffff021916908373ffffffffffffffffffffffffffffffffffffffff1602179055506200044c565b600081519050919050565b7f4e487b7100000000000000000000000000000000000000000000000000000000600052604160045260246000fd5b7f4e487b7100000000000000000000000000000000000000000000000000000000600052602260045260246000fd5b600060028204905060018216806200016d57607f821691505b60208210810362000183576200018262000125565b5b50919050565b60008190508160005260206000209050919050565b60006020601f8301049050919050565b600082821b905092915050565b600060088302620001ed7fffffffffffffffffffffffffffffffffffffffffffffffffffffffffffffffff82620001ae565b620001f98683620001ae565b95508019841693508086168417925050509392505050565b6000819050919050565b6000819050919050565b600062000246620002406200023a8462000211565b6200021b565b62000211565b9050919050565b6000819050919050565b620002628362000225565b6200027a62000271826200024d565b848454620001bb565b825550505050565b600090565b6200029162000282565b6200029e81848462000257565b505050565b5b81811015620002c657620002ba60008262000287565b600181019050620002a4565b5050565b601f8211156200031557620002df8162000189565b620002ea846200019e565b81016020851015620002fa578190505b6200031262000309856200019e565b830182620002a3565b50505b505050565b600082821c905092915050565b60006200033a600019846008026200031a565b1980831691505092915050565b600062000355838362000327565b9150826002028217905092915050565b6200037082620000eb565b67ffffffffffffffff8111156200038c576200038b620000f6565b5b62000398825462000154565b620003a5828285620002ca565b600060209050601f831160018114620003dd5760008415620003c8578287015190505b620003d4858262000347565b86555062000444565b601f198416620003ed8662000189565b60005b828110156200041757848901518255600182019150602085019450602081019050620003f0565b8683101562000437578489015162000433601f89168262000327565b8355505b6001600288020188555050505b505050505050565b612908806200045c6000396000f3fe608060405234801561001057600080fd5b50600436106101165760003560e01c80638f8e94c9116100a2578063aac132de11610071578063aac132de14610303578063b88d4fde14610333578063c87b56dd1461034f578063e985e9c51461037f578063fefb21a4146103af57610116565b80638f8e94c91461027d57806395d89b4114610299578063a22cb465146102b7578063a673dd4b146102d357610116565b80630d7c43f5116100e95780630d7c43f5146101b557806323b872dd146101e557806342842e0e146102015780636352211e1461021d57806370a082311461024d57610116565b806301ffc9a71461011b57806306fdde031461014b578063081812fc14610169578063095ea7b314610199575b600080fd5b61013560048036038101906101309190611668565b6103cd565b60405161014291906116b0565b60405180910390f35b6101536104af565b604051610160919061175b565b60405180910390f35b610183600480360381019061017e91906117b3565b610541565b6040516101909190611821565b60405180910390f35b6101b360048036038101906101ae9190611868565b610548565b005b6101cf60048036038101906101ca91906119dd565b610583565b6040516101dc91906116b0565b60405180910390f35b6101ff60048036038101906101fa9190611af6565b610766565b005b61021b60048036038101906102169190611af6565b6107a1565b005b610237600480360381019061023291906117b3565b6107dc565b6040516102449190611821565b60405180910390f35b61026760048036038101906102629190611b49565b610862565b6040516102749190611b85565b60405180910390f35b61029760048036038101906102929190611ba0565b610919565b005b6102a1610a78565b6040516102ae919061175b565b60405180910390f35b6102d160048036038101906102cc9190611c57565b610b0a565b005b6102ed60048036038101906102e89190611b49565b610b45565b6040516102fa91906116b0565b60405180910390f35b61031d60048036038101906103189190611b49565b610baf565b60405161032a91906116b0565b60405180910390f35b61034d60048036038101906103489190611d38565b610c19565b005b610369600480360381019061036491906117b3565b610c54565b604051610376919061175b565b60405180910390f35b61039960048036038101906103949190611dbb565b610d66565b6040516103a691906116b0565b60405180910390f35b6103b7610dfa565b6040516103c49190611b85565b60405180910390f35b60007f80ac58cd000000000000000000000000000000000000000000000000000000007bffffffffffffffffffffffffffffffffffffffffffffffffffffffff1916827bffffffffffffffffffffffffffffffffffffffffffffffffffffffff1916148061049857507f5b5e139f000000000000000000000000000000000000000000000000000000007bffffffffffffffffffffffffffffffffffffffffffffffffffffffff1916827bffffffffffffffffffffffffffffffffffffffffffffffffffffffff1916145b806104a857506104a782610e04565b5b9050919050565b6060600080546104be90611e2a565b80601f01602080910402602001604051908101604052809291908181526020018280546104ea90611e2a565b80156105375780601f1061050c57610100808354040283529160200191610537565b820191906000526020600020905b81548152906001019060200180831161051a57829003601f168201915b5050505050905090565b6000919050565b6040517f08c379a000000000000000000000000000000000000000000000000000000000815260040161057a90611ecd565b60405180910390fd5b600060011515600960003373ffffffffffffffffffffffffffffffffffffffff1673ffffffffffffffffffffffffffffffffffffffff16815260200190815260200160002060020160009054906101000a900460ff1615151461061b576040517f08c379a000000000000000000000000000000000000000000000000000000000815260040161061290611f39565b60405180910390fd5b60003390506000600960008373ffffffffffffffffffffffffffffffffffffffff1673ffffffffffffffffffffffffffffffffffffffff168152602001908152602001600020600001805461066f90611e2a565b80601f016020809104026020016040519081016040528092919081815260200182805461069b90611e2a565b80156106e85780601f106106bd576101008083540402835291602001916106e8565b820191906000526020600020905b8154815290600101906020018083116106cb57829003601f168201915b5050505050905060006040518060c001604052808381526020018a815260200189815260200187815260200186815260200188815250905061072a600b610e6e565b6000610736600b610e84565b90506107428b82610e92565b6107548161074f846110af565b6110fa565b60019450505050509695505050505050565b6040517f08c379a000000000000000000000000000000000000000000000000000000000815260040161079890611ecd565b60405180910390fd5b6040517f08c379a00000000000000000000000000000000000000000000000000000000081526004016107d390611ecd565b60405180910390fd5b6000806107e883611167565b9050600073ffffffffffffffffffffffffffffffffffffffff168173ffffffffffffffffffffffffffffffffffffffff1603610859576040517f08c379a000000000000000000000000000000000000000000000000000000000815260040161085090611fa5565b60405180910390fd5b80915050919050565b60008073ffffffffffffffffffffffffffffffffffffffff168273ffffffffffffffffffffffffffffffffffffffff16036108d2576040517f08c379a00000000000000000000000000000000000000000000000000000000081526004016108c990612037565b60405180910390fd5b600360008373ffffffffffffffffffffffffffffffffffffffff1673ffffffffffffffffffffffffffffffffffffffff168152602001908152602001600020549050919050565b3373ffffffffffffffffffffffffffffffffffffffff16600760009054906101000a900473ffffffffffffffffffffffffffffffffffffffff1673ffffffffffffffffffffffffffffffffffffffff16146109a9576040517f08c379a00000000000000000000000000000000000000000000000000000000081526004016109a0906120a3565b60405180910390fd5b6000604051806060016040528085815260200184815260200160011515815250905080600960008473ffffffffffffffffffffffffffffffffffffffff1673ffffffffffffffffffffffffffffffffffffffff1681526020019081526020016000206000820151816000019081610a20919061226f565b506020820151816001019081610a36919061226f565b5060408201518160020160006101000a81548160ff02191690831515021790555090505060086000815480929190610a6d90612370565b919050555050505050565b606060018054610a8790611e2a565b80601f0160208091040260200160405190810160405280929190818152602001828054610ab390611e2a565b8015610b005780601f10610ad557610100808354040283529160200191610b00565b820191906000526020600020905b815481529060010190602001808311610ae357829003601f168201915b5050505050905090565b6040517f08c379a0000000000000000000000000000000000000000000000000000000008152600401610b3c90611ecd565b60405180910390fd5b6000600960008373ffffffffffffffffffffffffffffffffffffffff1673ffffffffffffffffffffffffffffffffffffffff16815260200190815260200160002060020160009054906101000a900460ff1615610ba55760019050610baa565b600090505b919050565b6000600760009054906101000a900473ffffffffffffffffffffffffffffffffffffffff1673ffffffffffffffffffffffffffffffffffffffff168273ffffffffffffffffffffffffffffffffffffffff1603610c0f5760019050610c14565b600090505b919050565b6040517f08c379a0000000000000000000000000000000000000000000000000000000008152600401610c4b90611ecd565b60405180910390fd5b6060610c5f826111a4565b6000600660008481526020019081526020016000208054610c7f90611e2a565b80601f0160208091040260200160405190810160405280929190818152602001828054610cab90611e2a565b8015610cf85780601f10610ccd57610100808354040283529160200191610cf8565b820191906000526020600020905b815481529060010190602001808311610cdb57829003601f168201915b505050505090506000610d096111ef565b90506000815103610d1e578192505050610d61565b600082511115610d53578082604051602001610d3b9291906123f4565b60405160208183030381529060405292505050610d61565b610d5c84611206565b925050505b919050565b6000600560008473ffffffffffffffffffffffffffffffffffffffff1673ffffffffffffffffffffffffffffffffffffffff16815260200190815260200160002060008373ffffffffffffffffffffffffffffffffffffffff1673ffffffffffffffffffffffffffffffffffffffff16815260200190815260200160002060009054906101000a900460ff16905092915050565b6000600854905090565b60007f01ffc9a7000000000000000000000000000000000000000000000000000000007bffffffffffffffffffffffffffffffffffffffffffffffffffffffff1916827bffffffffffffffffffffffffffffffffffffffffffffffffffffffff1916149050919050565b6001816000016000828254019250508190555050565b600081600001549050919050565b600073ffffffffffffffffffffffffffffffffffffffff168273ffffffffffffffffffffffffffffffffffffffff1603610f01576040517f08c379a0000000000000000000000000000000000000000000000000000000008152600401610ef890612464565b60405180910390fd5b610f0a8161126e565b15610f4a576040517f08c379a0000000000000000000000000000000000000000000000000000000008152600401610f41906124d0565b60405180910390fd5b610f586000838360016112af565b610f618161126e565b15610fa1576040517f08c379a0000000000000000000000000000000000000000000000000000000008152600401610f98906124d0565b60405180910390fd5b6001600360008473ffffffffffffffffffffffffffffffffffffffff1673ffffffffffffffffffffffffffffffffffffffff16815260200190815260200160002060008282540192505081905550816002600083815260200190815260200160002060006101000a81548173ffffffffffffffffffffffffffffffffffffffff021916908373ffffffffffffffffffffffffffffffffffffffff160217905550808273ffffffffffffffffffffffffffffffffffffffff16600073ffffffffffffffffffffffffffffffffffffffff167fddf252ad1be2c89b69c2b068fc378daa952ba7f163c4a11628f55a4df523b3ef60405160405180910390a46110ab6000838360016113d5565b5050565b6060816000015182602001518360400151846060015185608001518660a001516040516020016110e496959493929190612704565b6040516020818303038152906040529050919050565b6111038261126e565b611142576040517f08c379a00000000000000000000000000000000000000000000000000000000081526004016111399061281b565b60405180910390fd5b80600660008481526020019081526020016000209081611162919061226f565b505050565b60006002600083815260200190815260200160002060009054906101000a900473ffffffffffffffffffffffffffffffffffffffff169050919050565b6111ad8161126e565b6111ec576040517f08c379a00000000000000000000000000000000000000000000000000000000081526004016111e390611fa5565b60405180910390fd5b50565b606060405180602001604052806000815250905090565b6060611211826111a4565b600061121b6111ef565b9050600081511161123b5760405180602001604052806000815250611266565b80611245846113db565b6040516020016112569291906123f4565b6040516020818303038152906040525b915050919050565b60008073ffffffffffffffffffffffffffffffffffffffff1661129083611167565b73ffffffffffffffffffffffffffffffffffffffff1614159050919050565b60018111156113cf57600073ffffffffffffffffffffffffffffffffffffffff168473ffffffffffffffffffffffffffffffffffffffff16146113435780600360008673ffffffffffffffffffffffffffffffffffffffff1673ffffffffffffffffffffffffffffffffffffffff168152602001908152602001600020600082825461133b919061283b565b925050819055505b600073ffffffffffffffffffffffffffffffffffffffff168373ffffffffffffffffffffffffffffffffffffffff16146113ce5780600360008573ffffffffffffffffffffffffffffffffffffffff1673ffffffffffffffffffffffffffffffffffffffff16815260200190815260200160002060008282546113c6919061286f565b925050819055505b5b50505050565b50505050565b6060600060016113ea846114a9565b01905060008167ffffffffffffffff811115611409576114086118b2565b5b6040519080825280601f01601f19166020018201604052801561143b5781602001600182028036833780820191505090505b509050600082602001820190505b60011561149e578080600190039150507f3031323334353637383961626364656600000000000000000000000000000000600a86061a8153600a8581611492576114916128a3565b5b04945060008503611449575b819350505050919050565b600080600090507a184f03e93ff9f4daa797ed6e38ed64bf6a1f0100000000000000008310611507577a184f03e93ff9f4daa797ed6e38ed64bf6a1f01000000000000000083816114fd576114fc6128a3565b5b0492506040810190505b6d04ee2d6d415b85acef81000000008310611544576d04ee2d6d415b85acef8100000000838161153a576115396128a3565b5b0492506020810190505b662386f26fc10000831061157357662386f26fc100008381611569576115686128a3565b5b0492506010810190505b6305f5e100831061159c576305f5e1008381611592576115916128a3565b5b0492506008810190505b61271083106115c15761271083816115b7576115b66128a3565b5b0492506004810190505b606483106115e457606483816115da576115d96128a3565b5b0492506002810190505b600a83106115f3576001810190505b80915050919050565b6000604051905090565b600080fd5b600080fd5b60007fffffffff0000000000000000000000000000000000000000000000000000000082169050919050565b61164581611610565b811461165057600080fd5b50565b6000813590506116628161163c565b92915050565b60006020828403121561167e5761167d611606565b5b600061168c84828501611653565b91505092915050565b60008115159050919050565b6116aa81611695565b82525050565b60006020820190506116c560008301846116a1565b92915050565b600081519050919050565b600082825260208201905092915050565b60005b838110156117055780820151818401526020810190506116ea565b60008484015250505050565b6000601f19601f8301169050919050565b600061172d826116cb565b61173781856116d6565b93506117478185602086016116e7565b61175081611711565b840191505092915050565b600060208201905081810360008301526117758184611722565b905092915050565b6000819050919050565b6117908161177d565b811461179b57600080fd5b50565b6000813590506117ad81611787565b92915050565b6000602082840312156117c9576117c8611606565b5b60006117d78482850161179e565b91505092915050565b600073ffffffffffffffffffffffffffffffffffffffff82169050919050565b600061180b826117e0565b9050919050565b61181b81611800565b82525050565b60006020820190506118366000830184611812565b92915050565b61184581611800565b811461185057600080fd5b50565b6000813590506118628161183c565b92915050565b6000806040838503121561187f5761187e611606565b5b600061188d85828601611853565b925050602061189e8582860161179e565b9150509250929050565b600080fd5b600080fd5b7f4e487b7100000000000000000000000000000000000000000000000000000000600052604160045260246000fd5b6118ea82611711565b810181811067ffffffffffffffff82111715611909576119086118b2565b5b80604052505050565b600061191c6115fc565b905061192882826118e1565b919050565b600067ffffffffffffffff821115611948576119476118b2565b5b61195182611711565b9050602081019050919050565b82818337600083830152505050565b600061198061197b8461192d565b611912565b90508281526020810184848401111561199c5761199b6118ad565b5b6119a784828561195e565b509392505050565b600082601f8301126119c4576119c36118a8565b5b81356119d484826020860161196d565b91505092915050565b60008060008060008060c087890312156119fa576119f9611606565b5b6000611a0889828a01611853565b965050602087013567ffffffffffffffff811115611a2957611a2861160b565b5b611a3589828a016119af565b955050604087013567ffffffffffffffff811115611a5657611a5561160b565b5b611a6289828a016119af565b945050606087013567ffffffffffffffff811115611a8357611a8261160b565b5b611a8f89828a016119af565b935050608087013567ffffffffffffffff811115611ab057611aaf61160b565b5b611abc89828a016119af565b92505060a087013567ffffffffffffffff811115611add57611adc61160b565b5b611ae989828a016119af565b9150509295509295509295565b600080600060608486031215611b0f57611b0e611606565b5b6000611b1d86828701611853565b9350506020611b2e86828701611853565b9250506040611b3f8682870161179e565b9150509250925092565b600060208284031215611b5f57611b5e611606565b5b6000611b6d84828501611853565b91505092915050565b611b7f8161177d565b82525050565b6000602082019050611b9a6000830184611b76565b92915050565b600080600060608486031215611bb957611bb8611606565b5b600084013567ffffffffffffffff811115611bd757611bd661160b565b5b611be3868287016119af565b935050602084013567ffffffffffffffff811115611c0457611c0361160b565b5b611c10868287016119af565b9250506040611c2186828701611853565b9150509250925092565b611c3481611695565b8114611c3f57600080fd5b50565b600081359050611c5181611c2b565b92915050565b60008060408385031215611c6e57611c6d611606565b5b6000611c7c85828601611853565b9250506020611c8d85828601611c42565b9150509250929050565b600067ffffffffffffffff821115611cb257611cb16118b2565b5b611cbb82611711565b9050602081019050919050565b6000611cdb611cd684611c97565b611912565b905082815260208101848484011115611cf757611cf66118ad565b5b611d0284828561195e565b509392505050565b600082601f830112611d1f57611d1e6118a8565b5b8135611d2f848260208601611cc8565b91505092915050565b60008060008060808587031215611d5257611d51611606565b5b6000611d6087828801611853565b9450506020611d7187828801611853565b9350506040611d828782880161179e565b925050606085013567ffffffffffffffff811115611da357611da261160b565b5b611daf87828801611d0a565b91505092959194509250565b60008060408385031215611dd257611dd1611606565b5b6000611de085828601611853565b9250506020611df185828601611853565b9150509250929050565b7f4e487b7100000000000000000000000000000000000000000000000000000000600052602260045260246000fd5b60006002820490506001821680611e4257607f821691505b602082108103611e5557611e54611dfb565b5b50919050565b7f5472616e73666572206e6f7420737570706f7274656420666f7220736f756c2060008201527f626f756e6420746f6b656e2e0000000000000000000000000000000000000000602082015250565b6000611eb7602c836116d6565b9150611ec282611e5b565b604082019050919050565b60006020820190508181036000830152611ee681611eaa565b9050919050565b7f4e6565647320746f2062652076616c696420696e737469747574650000000000600082015250565b6000611f23601b836116d6565b9150611f2e82611eed565b602082019050919050565b60006020820190508181036000830152611f5281611f16565b9050919050565b7f4552433732313a20696e76616c696420746f6b656e2049440000000000000000600082015250565b6000611f8f6018836116d6565b9150611f9a82611f59565b602082019050919050565b60006020820190508181036000830152611fbe81611f82565b9050919050565b7f4552433732313a2061646472657373207a65726f206973206e6f74206120766160008201527f6c6964206f776e65720000000000000000000000000000000000000000000000602082015250565b60006120216029836116d6565b915061202c82611fc5565b604082019050919050565b6000602082019050818103600083015261205081612014565b9050919050565b7f4e6f2073756666696369656e7420726967687400000000000000000000000000600082015250565b600061208d6013836116d6565b915061209882612057565b602082019050919050565b600060208201905081810360008301526120bc81612080565b9050919050565b60008190508160005260206000209050919050565b60006020601f8301049050919050565b600082821b905092915050565b6000600883026121257fffffffffffffffffffffffffffffffffffffffffffffffffffffffffffffffff826120e8565b61212f86836120e8565b95508019841693508086168417925050509392505050565b6000819050919050565b600061216c6121676121628461177d565b612147565b61177d565b9050919050565b6000819050919050565b61218683612151565b61219a61219282612173565b8484546120f5565b825550505050565b600090565b6121af6121a2565b6121ba81848461217d565b505050565b5b818110156121de576121d36000826121a7565b6001810190506121c0565b5050565b601f821115612223576121f4816120c3565b6121fd846120d8565b8101602085101561220c578190505b612220612218856120d8565b8301826121bf565b50505b505050565b600082821c905092915050565b600061224660001984600802612228565b1980831691505092915050565b600061225f8383612235565b9150826002028217905092915050565b612278826116cb565b67ffffffffffffffff811115612291576122906118b2565b5b61229b8254611e2a565b6122a68282856121e2565b600060209050601f8311600181146122d957600084156122c7578287015190505b6122d18582612253565b865550612339565b601f1984166122e7866120c3565b60005b8281101561230f578489015182556001820191506020850194506020810190506122ea565b8683101561232c5784890151612328601f891682612235565b8355505b6001600288020188555050505b505050505050565b7f4e487b7100000000000000000000000000000000000000000000000000000000600052601160045260246000fd5b600061237b8261177d565b91507fffffffffffffffffffffffffffffffffffffffffffffffffffffffffffffffff82036123ad576123ac612341565b5b600182019050919050565b600081905092915050565b60006123ce826116cb565b6123d881856123b8565b93506123e88185602086016116e7565b80840191505092915050565b600061240082856123c3565b915061240c82846123c3565b91508190509392505050565b7f4552433732313a206d696e7420746f20746865207a65726f2061646472657373600082015250565b600061244e6020836116d6565b915061245982612418565b602082019050919050565b6000602082019050818103600083015261247d81612441565b9050919050565b7f4552433732313a20746f6b656e20616c7265616479206d696e74656400000000600082015250565b60006124ba601c836116d6565b91506124c582612484565b602082019050919050565b600060208201905081810360008301526124e9816124ad565b9050919050565b7f7b696e737469747574655f6e616d653a00000000000000000000000000000000600082015250565b60006125266010836123b8565b9150612531826124f0565b601082019050919050565b7f657870657269656e63655f747970653a00000000000000000000000000000000600082015250565b60006125726010836123b8565b915061257d8261253c565b601082019050919050565b7f2c207469746c653a000000000000000000000000000000000000000000000000600082015250565b60006125be6008836123b8565b91506125c982612588565b600882019050919050565b7f2c2073746172745f646174653a00000000000000000000000000000000000000600082015250565b600061260a600d836123b8565b9150612615826125d4565b600d82019050919050565b7f2c20656e645f646174653a000000000000000000000000000000000000000000600082015250565b6000612656600b836123b8565b915061266182612620565b600b82019050919050565b7f2c206465736372697074696f6e3a000000000000000000000000000000000000600082015250565b60006126a2600e836123b8565b91506126ad8261266c565b600e82019050919050565b7f7d00000000000000000000000000000000000000000000000000000000000000600082015250565b60006126ee6001836123b8565b91506126f9826126b8565b600182019050919050565b600061270f82612519565b915061271b82896123c3565b915061272682612565565b915061273282886123c3565b915061273d826125b1565b915061274982876123c3565b9150612754826125fd565b915061276082866123c3565b915061276b82612649565b915061277782856123c3565b915061278282612695565b915061278e82846123c3565b9150612799826126e1565b9150819050979650505050505050565b7f45524337323155524953746f726167653a2055524920736574206f66206e6f6e60008201527f6578697374656e7420746f6b656e000000000000000000000000000000000000602082015250565b6000612805602e836116d6565b9150612810826127a9565b604082019050919050565b60006020820190508181036000830152612834816127f8565b9050919050565b60006128468261177d565b91506128518361177d565b925082820390508181111561286957612868612341565b5b92915050565b600061287a8261177d565b91506128858361177d565b925082820190508082111561289d5761289c612341565b5b92915050565b7f4e487b7100000000000000000000000000000000000000000000000000000000600052601260045260246000fdfea264697066735822122045acc0fd8558e02fa7689d8898e20b286c5a8de7cd957ff4061957644a5ac99a64736f6c63430008110033",
  "linkReferences": {},
  "deployedLinkReferences": {}
}