{
  "_format": "hh-sol-artifact-1",
  "contractName": "ProfessionalValidation",
  "sourceName": "contracts/sbt.sol",
  "abi": [
    {
      "inputs": [],
      "stateMutability": "nonpayable",
      "type": "constructor"
    },
    {
      "anonymous": false,
      "inputs": [
        {
          "indexed": true,
          "internalType": "address",
          "name": "owner",
          "type": "address"
        },
        {
          "indexed": true,
          "internalType": "address",
          "name": "approved",
          "type": "address"
        },
        {
          "indexed": true,
          "internalType": "uint256",
          "name": "tokenId",
          "type": "uint256"
        }
      ],
      "name": "Approval",
      "type": "event"
    },
    {
      "anonymous": false,
      "inputs": [
        {
          "indexed": true,
          "internalType": "address",
          "name": "owner",
          "type": "address"
        },
        {
          "indexed": true,
          "internalType": "address",
          "name": "operator",
          "type": "address"
        },
        {
          "indexed": false,
          "internalType": "bool",
          "name": "approved",
          "type": "bool"
        }
      ],
      "name": "ApprovalForAll",
      "type": "event"
    },
    {
      "anonymous": false,
      "inputs": [
        {
          "indexed": true,
          "internalType": "address",
          "name": "from",
          "type": "address"
        },
        {
          "indexed": true,
          "internalType": "address",
          "name": "to",
          "type": "address"
        },
        {
          "indexed": true,
          "internalType": "uint256",
          "name": "tokenId",
          "type": "uint256"
        }
      ],
      "name": "Transfer",
      "type": "event"
    },
    {
      "inputs": [
        {
          "internalType": "string",
          "name": "name",
          "type": "string"
        },
        {
          "internalType": "string",
          "name": "description",
          "type": "string"
        },
        {
          "internalType": "address",
          "name": "institute_adress",
          "type": "address"
        }
      ],
      "name": "addInstitute",
      "outputs": [],
      "stateMutability": "nonpayable",
      "type": "function"
    },
    {
      "inputs": [
        {
          "internalType": "address",
          "name": "to",
          "type": "address"
        },
        {
          "internalType": "uint256",
          "name": "tokenId",
          "type": "uint256"
        }
      ],
      "name": "approve",
      "outputs": [],
      "stateMutability": "nonpayable",
      "type": "function"
    },
    {
      "inputs": [
        {
          "internalType": "address",
          "name": "owner",
          "type": "address"
        }
      ],
      "name": "balanceOf",
      "outputs": [
        {
          "internalType": "uint256",
          "name": "",
          "type": "uint256"
        }
      ],
      "stateMutability": "view",
      "type": "function"
    },
    {
      "inputs": [
        {
          "internalType": "uint256",
          "name": "tokenId",
          "type": "uint256"
        }
      ],
      "name": "getApproved",
      "outputs": [
        {
          "internalType": "address",
          "name": "",
          "type": "address"
        }
      ],
      "stateMutability": "view",
      "type": "function"
    },
    {
      "inputs": [],
      "name": "instituteCount",
      "outputs": [
        {
          "internalType": "uint256",
          "name": "",
          "type": "uint256"
        }
      ],
      "stateMutability": "view",
      "type": "function"
    },
    {
      "inputs": [
        {
          "internalType": "address",
          "name": "owner",
          "type": "address"
        },
        {
          "internalType": "address",
          "name": "operator",
          "type": "address"
        }
      ],
      "name": "isApprovedForAll",
      "outputs": [
        {
          "internalType": "bool",
          "name": "",
          "type": "bool"
        }
      ],
      "stateMutability": "view",
      "type": "function"
    },
    {
      "inputs": [
        {
          "internalType": "address",
          "name": "_admin",
          "type": "address"
        }
      ],
      "name": "is_admin",
      "outputs": [
        {
          "internalType": "bool",
          "name": "",
          "type": "bool"
        }
      ],
      "stateMutability": "nonpayable",
      "type": "function"
    },
    {
      "inputs": [
        {
          "internalType": "address",
          "name": "_institute",
          "type": "address"
        }
      ],
      "name": "is_institute",
      "outputs": [
        {
          "internalType": "bool",
          "name": "",
          "type": "bool"
        }
      ],
      "stateMutability": "nonpayable",
      "type": "function"
    },
    {
      "inputs": [
        {
          "internalType": "address",
          "name": "receiver",
          "type": "address"
        },
        {
          "internalType": "string",
          "name": "exp_type",
          "type": "string"
        },
        {
          "internalType": "string",
          "name": "title",
          "type": "string"
        },
        {
          "internalType": "string",
          "name": "description",
          "type": "string"
        },
        {
          "internalType": "uint256",
          "name": "start_date",
          "type": "uint256"
        },
        {
          "internalType": "uint256",
          "name": "end_date",
          "type": "uint256"
        },
        {
          "internalType": "bool",
          "name": "has_expiry",
          "type": "bool"
        },
        {
          "internalType": "uint256",
          "name": "expiry_date",
          "type": "uint256"
        }
      ],
      "name": "mint",
      "outputs": [
        {
          "internalType": "bool",
          "name": "",
          "type": "bool"
        }
      ],
      "stateMutability": "nonpayable",
      "type": "function"
    },
    {
      "inputs": [],
      "name": "name",
      "outputs": [
        {
          "internalType": "string",
          "name": "",
          "type": "string"
        }
      ],
      "stateMutability": "view",
      "type": "function"
    },
    {
      "inputs": [
        {
          "internalType": "uint256",
          "name": "tokenId",
          "type": "uint256"
        }
      ],
      "name": "ownerOf",
      "outputs": [
        {
          "internalType": "address",
          "name": "",
          "type": "address"
        }
      ],
      "stateMutability": "view",
      "type": "function"
    },
    {
      "inputs": [
        {
          "internalType": "address",
          "name": "from",
          "type": "address"
        },
        {
          "internalType": "address",
          "name": "to",
          "type": "address"
        },
        {
          "internalType": "uint256",
          "name": "tokenId",
          "type": "uint256"
        }
      ],
      "name": "safeTransferFrom",
      "outputs": [],
      "stateMutability": "nonpayable",
      "type": "function"
    },
    {
      "inputs": [
        {
          "internalType": "address",
          "name": "from",
          "type": "address"
        },
        {
          "internalType": "address",
          "name": "to",
          "type": "address"
        },
        {
          "internalType": "uint256",
          "name": "tokenId",
          "type": "uint256"
        },
        {
          "internalType": "bytes",
          "name": "data",
          "type": "bytes"
        }
      ],
      "name": "safeTransferFrom",
      "outputs": [],
      "stateMutability": "nonpayable",
      "type": "function"
    },
    {
      "inputs": [
        {
          "internalType": "address",
          "name": "operator",
          "type": "address"
        },
        {
          "internalType": "bool",
          "name": "approved",
          "type": "bool"
        }
      ],
      "name": "setApprovalForAll",
      "outputs": [],
      "stateMutability": "nonpayable",
      "type": "function"
    },
    {
      "inputs": [
        {
          "internalType": "bytes4",
          "name": "interfaceId",
          "type": "bytes4"
        }
      ],
      "name": "supportsInterface",
      "outputs": [
        {
          "internalType": "bool",
          "name": "",
          "type": "bool"
        }
      ],
      "stateMutability": "view",
      "type": "function"
    },
    {
      "inputs": [],
      "name": "symbol",
      "outputs": [
        {
          "internalType": "string",
          "name": "",
          "type": "string"
        }
      ],
      "stateMutability": "view",
      "type": "function"
    },
    {
      "inputs": [
        {
          "internalType": "uint256",
          "name": "tokenId",
          "type": "uint256"
        }
      ],
      "name": "tokenURI",
      "outputs": [
        {
          "internalType": "string",
          "name": "",
          "type": "string"
        }
      ],
      "stateMutability": "view",
      "type": "function"
    },
    {
      "inputs": [
        {
          "internalType": "address",
          "name": "from",
          "type": "address"
        },
        {
          "internalType": "address",
          "name": "to",
          "type": "address"
        },
        {
          "internalType": "uint256",
          "name": "tokenId",
          "type": "uint256"
        }
      ],
      "name": "transferFrom",
      "outputs": [],
      "stateMutability": "nonpayable",
      "type": "function"
    }
  ],
  "bytecode": "0x60806040523480156200001157600080fd5b506040518060400160405280601b81526020017f50726f66657373696f6e616c20457870657269656e63652053425400000000008152506040518060400160405280600681526020017f455850534254000000000000000000000000000000000000000000000000000081525081600090816200008f919062000365565b508060019081620000a1919062000365565b50505033600760006101000a81548173ffffffffffffffffffffffffffffffffffffffff021916908373ffffffffffffffffffffffffffffffffffffffff1602179055506200044c565b600081519050919050565b7f4e487b7100000000000000000000000000000000000000000000000000000000600052604160045260246000fd5b7f4e487b7100000000000000000000000000000000000000000000000000000000600052602260045260246000fd5b600060028204905060018216806200016d57607f821691505b60208210810362000183576200018262000125565b5b50919050565b60008190508160005260206000209050919050565b60006020601f8301049050919050565b600082821b905092915050565b600060088302620001ed7fffffffffffffffffffffffffffffffffffffffffffffffffffffffffffffffff82620001ae565b620001f98683620001ae565b95508019841693508086168417925050509392505050565b6000819050919050565b6000819050919050565b600062000246620002406200023a8462000211565b6200021b565b62000211565b9050919050565b6000819050919050565b620002628362000225565b6200027a62000271826200024d565b848454620001bb565b825550505050565b600090565b6200029162000282565b6200029e81848462000257565b505050565b5b81811015620002c657620002ba60008262000287565b600181019050620002a4565b5050565b601f8211156200031557620002df8162000189565b620002ea846200019e565b81016020851015620002fa578190505b6200031262000309856200019e565b830182620002a3565b50505b505050565b600082821c905092915050565b60006200033a600019846008026200031a565b1980831691505092915050565b600062000355838362000327565b9150826002028217905092915050565b6200037082620000eb565b67ffffffffffffffff8111156200038c576200038b620000f6565b5b62000398825462000154565b620003a5828285620002ca565b600060209050601f831160018114620003dd5760008415620003c8578287015190505b620003d4858262000347565b86555062000444565b601f198416620003ed8662000189565b60005b828110156200041757848901518255600182019150602085019450602081019050620003f0565b8683101562000437578489015162000433601f89168262000327565b8355505b6001600288020188555050505b505050505050565b613394806200045c6000396000f3fe608060405234801561001057600080fd5b50600436106101165760003560e01c806395d89b41116100a2578063b88d4fde11610071578063b88d4fde14610303578063c6a43ef31461031f578063c87b56dd1461034f578063e985e9c51461037f578063fefb21a4146103af57610116565b806395d89b4114610269578063a22cb46514610287578063a673dd4b146102a3578063aac132de146102d357610116565b806323b872dd116100e957806323b872dd146101b557806342842e0e146101d15780636352211e146101ed57806370a082311461021d5780638f8e94c91461024d57610116565b806301ffc9a71461011b57806306fdde031461014b578063081812fc14610169578063095ea7b314610199575b600080fd5b61013560048036038101906101309190611eb5565b6103cd565b6040516101429190611efd565b60405180910390f35b6101536104af565b6040516101609190611fa8565b60405180910390f35b610183600480360381019061017e9190612000565b610541565b604051610190919061206e565b60405180910390f35b6101b360048036038101906101ae91906120b5565b610587565b005b6101cf60048036038101906101ca91906120f5565b61069e565b005b6101eb60048036038101906101e691906120f5565b6106fe565b005b61020760048036038101906102029190612000565b61071e565b604051610214919061206e565b60405180910390f35b61023760048036038101906102329190612148565b6107a4565b6040516102449190612184565b60405180910390f35b610267600480360381019061026291906122d4565b61085b565b005b6102716109ba565b60405161027e9190611fa8565b60405180910390f35b6102a1600480360381019061029c919061238b565b610a4c565b005b6102bd60048036038101906102b89190612148565b610a62565b6040516102ca9190611efd565b60405180910390f35b6102ed60048036038101906102e89190612148565b610acc565b6040516102fa9190611efd565b60405180910390f35b61031d6004803603810190610318919061246c565b610b26565b005b610339600480360381019061033491906124ef565b610b88565b6040516103469190611efd565b60405180910390f35b61036960048036038101906103649190612000565b610c9f565b6040516103769190611fa8565b60405180910390f35b610399600480360381019061039491906125f9565b610db1565b6040516103a69190611efd565b60405180910390f35b6103b7610e45565b6040516103c49190612184565b60405180910390f35b60007f80ac58cd000000000000000000000000000000000000000000000000000000007bffffffffffffffffffffffffffffffffffffffffffffffffffffffff1916827bffffffffffffffffffffffffffffffffffffffffffffffffffffffff1916148061049857507f5b5e139f000000000000000000000000000000000000000000000000000000007bffffffffffffffffffffffffffffffffffffffffffffffffffffffff1916827bffffffffffffffffffffffffffffffffffffffffffffffffffffffff1916145b806104a857506104a782610e4f565b5b9050919050565b6060600080546104be90612668565b80601f01602080910402602001604051908101604052809291908181526020018280546104ea90612668565b80156105375780601f1061050c57610100808354040283529160200191610537565b820191906000526020600020905b81548152906001019060200180831161051a57829003601f168201915b5050505050905090565b600061054c82610eb9565b6004600083815260200190815260200160002060009054906101000a900473ffffffffffffffffffffffffffffffffffffffff169050919050565b60006105928261071e565b90508073ffffffffffffffffffffffffffffffffffffffff168373ffffffffffffffffffffffffffffffffffffffff1603610602576040517f08c379a00000000000000000000000000000000000000000000000000000000081526004016105f99061270b565b60405180910390fd5b8073ffffffffffffffffffffffffffffffffffffffff16610621610f04565b73ffffffffffffffffffffffffffffffffffffffff161480610650575061064f8161064a610f04565b610db1565b5b61068f576040517f08c379a00000000000000000000000000000000000000000000000000000000081526004016106869061279d565b60405180910390fd5b6106998383610f0c565b505050565b6106af6106a9610f04565b82610fc5565b6106ee576040517f08c379a00000000000000000000000000000000000000000000000000000000081526004016106e59061282f565b60405180910390fd5b6106f983838361105a565b505050565b61071983838360405180602001604052806000815250610b26565b505050565b60008061072a83611353565b9050600073ffffffffffffffffffffffffffffffffffffffff168173ffffffffffffffffffffffffffffffffffffffff160361079b576040517f08c379a00000000000000000000000000000000000000000000000000000000081526004016107929061289b565b60405180910390fd5b80915050919050565b60008073ffffffffffffffffffffffffffffffffffffffff168273ffffffffffffffffffffffffffffffffffffffff1603610814576040517f08c379a000000000000000000000000000000000000000000000000000000000815260040161080b9061292d565b60405180910390fd5b600360008373ffffffffffffffffffffffffffffffffffffffff1673ffffffffffffffffffffffffffffffffffffffff168152602001908152602001600020549050919050565b3373ffffffffffffffffffffffffffffffffffffffff16600760009054906101000a900473ffffffffffffffffffffffffffffffffffffffff1673ffffffffffffffffffffffffffffffffffffffff16146108eb576040517f08c379a00000000000000000000000000000000000000000000000000000000081526004016108e290612999565b60405180910390fd5b6000604051806060016040528085815260200184815260200160011515815250905080600960008473ffffffffffffffffffffffffffffffffffffffff1673ffffffffffffffffffffffffffffffffffffffff16815260200190815260200160002060008201518160000190816109629190612b65565b5060208201518160010190816109789190612b65565b5060408201518160020160006101000a81548160ff021916908315150217905550905050600860008154809291906109af90612c66565b919050555050505050565b6060600180546109c990612668565b80601f01602080910402602001604051908101604052809291908181526020018280546109f590612668565b8015610a425780601f10610a1757610100808354040283529160200191610a42565b820191906000526020600020905b815481529060010190602001808311610a2557829003601f168201915b5050505050905090565b610a5e610a57610f04565b8383611390565b5050565b6000600960008373ffffffffffffffffffffffffffffffffffffffff1673ffffffffffffffffffffffffffffffffffffffff16815260200190815260200160002060020160009054906101000a900460ff1615610ac25760019050610ac7565b600090505b919050565b6000600760009054906101000a900473ffffffffffffffffffffffffffffffffffffffff1673ffffffffffffffffffffffffffffffffffffffff168273ffffffffffffffffffffffffffffffffffffffff16149050919050565b610b37610b31610f04565b83610fc5565b610b76576040517f08c379a0000000000000000000000000000000000000000000000000000000008152600401610b6d9061282f565b60405180910390fd5b610b82848484846114fc565b50505050565b600060011515600960003373ffffffffffffffffffffffffffffffffffffffff1673ffffffffffffffffffffffffffffffffffffffff16815260200190815260200160002060020160009054906101000a900460ff16151514610c20576040517f08c379a0000000000000000000000000000000000000000000000000000000008152600401610c1790612cfa565b60405180910390fd5b60006040518060e001604052808a81526020018981526020018781526020018681526020018515158152602001848152602001888152509050610c63600b611558565b6000610c6f600b61156e565b9050610c7b8b8261157c565b610c8d81610c8884611799565b611825565b60019250505098975050505050505050565b6060610caa82610eb9565b6000600660008481526020019081526020016000208054610cca90612668565b80601f0160208091040260200160405190810160405280929190818152602001828054610cf690612668565b8015610d435780601f10610d1857610100808354040283529160200191610d43565b820191906000526020600020905b815481529060010190602001808311610d2657829003601f168201915b505050505090506000610d54611892565b90506000815103610d69578192505050610dac565b600082511115610d9e578082604051602001610d86929190612d56565b60405160208183030381529060405292505050610dac565b610da7846118a9565b925050505b919050565b6000600560008473ffffffffffffffffffffffffffffffffffffffff1673ffffffffffffffffffffffffffffffffffffffff16815260200190815260200160002060008373ffffffffffffffffffffffffffffffffffffffff1673ffffffffffffffffffffffffffffffffffffffff16815260200190815260200160002060009054906101000a900460ff16905092915050565b6000600854905090565b60007f01ffc9a7000000000000000000000000000000000000000000000000000000007bffffffffffffffffffffffffffffffffffffffffffffffffffffffff1916827bffffffffffffffffffffffffffffffffffffffffffffffffffffffff1916149050919050565b610ec281611911565b610f01576040517f08c379a0000000000000000000000000000000000000000000000000000000008152600401610ef89061289b565b60405180910390fd5b50565b600033905090565b816004600083815260200190815260200160002060006101000a81548173ffffffffffffffffffffffffffffffffffffffff021916908373ffffffffffffffffffffffffffffffffffffffff160217905550808273ffffffffffffffffffffffffffffffffffffffff16610f7f8361071e565b73ffffffffffffffffffffffffffffffffffffffff167f8c5be1e5ebec7d5bd14f71427d1e84f3dd0314c0f7b2291e5b200ac8c7c3b92560405160405180910390a45050565b600080610fd18361071e565b90508073ffffffffffffffffffffffffffffffffffffffff168473ffffffffffffffffffffffffffffffffffffffff16148061101357506110128185610db1565b5b8061105157508373ffffffffffffffffffffffffffffffffffffffff1661103984610541565b73ffffffffffffffffffffffffffffffffffffffff16145b91505092915050565b8273ffffffffffffffffffffffffffffffffffffffff1661107a8261071e565b73ffffffffffffffffffffffffffffffffffffffff16146110d0576040517f08c379a00000000000000000000000000000000000000000000000000000000081526004016110c790612dec565b60405180910390fd5b600073ffffffffffffffffffffffffffffffffffffffff168273ffffffffffffffffffffffffffffffffffffffff160361113f576040517f08c379a000000000000000000000000000000000000000000000000000000000815260040161113690612e7e565b60405180910390fd5b61114c8383836001611952565b8273ffffffffffffffffffffffffffffffffffffffff1661116c8261071e565b73ffffffffffffffffffffffffffffffffffffffff16146111c2576040517f08c379a00000000000000000000000000000000000000000000000000000000081526004016111b990612dec565b60405180910390fd5b6004600082815260200190815260200160002060006101000a81549073ffffffffffffffffffffffffffffffffffffffff02191690556001600360008573ffffffffffffffffffffffffffffffffffffffff1673ffffffffffffffffffffffffffffffffffffffff168152602001908152602001600020600082825403925050819055506001600360008473ffffffffffffffffffffffffffffffffffffffff1673ffffffffffffffffffffffffffffffffffffffff16815260200190815260200160002060008282540192505081905550816002600083815260200190815260200160002060006101000a81548173ffffffffffffffffffffffffffffffffffffffff021916908373ffffffffffffffffffffffffffffffffffffffff160217905550808273ffffffffffffffffffffffffffffffffffffffff168473ffffffffffffffffffffffffffffffffffffffff167fddf252ad1be2c89b69c2b068fc378daa952ba7f163c4a11628f55a4df523b3ef60405160405180910390a461134e8383836001611a78565b505050565b60006002600083815260200190815260200160002060009054906101000a900473ffffffffffffffffffffffffffffffffffffffff169050919050565b8173ffffffffffffffffffffffffffffffffffffffff168373ffffffffffffffffffffffffffffffffffffffff16036113fe576040517f08c379a00000000000000000000000000000000000000000000000000000000081526004016113f590612eea565b60405180910390fd5b80600560008573ffffffffffffffffffffffffffffffffffffffff1673ffffffffffffffffffffffffffffffffffffffff16815260200190815260200160002060008473ffffffffffffffffffffffffffffffffffffffff1673ffffffffffffffffffffffffffffffffffffffff16815260200190815260200160002060006101000a81548160ff0219169083151502179055508173ffffffffffffffffffffffffffffffffffffffff168373ffffffffffffffffffffffffffffffffffffffff167f17307eab39ab6107e8899845ad3d59bd9653f200f220920489ca2b5937696c31836040516114ef9190611efd565b60405180910390a3505050565b61150784848461105a565b61151384848484611a7e565b611552576040517f08c379a000000000000000000000000000000000000000000000000000000000815260040161154990612f7c565b60405180910390fd5b50505050565b6001816000016000828254019250508190555050565b600081600001549050919050565b600073ffffffffffffffffffffffffffffffffffffffff168273ffffffffffffffffffffffffffffffffffffffff16036115eb576040517f08c379a00000000000000000000000000000000000000000000000000000000081526004016115e290612fe8565b60405180910390fd5b6115f481611911565b15611634576040517f08c379a000000000000000000000000000000000000000000000000000000000815260040161162b90613054565b60405180910390fd5b611642600083836001611952565b61164b81611911565b1561168b576040517f08c379a000000000000000000000000000000000000000000000000000000000815260040161168290613054565b60405180910390fd5b6001600360008473ffffffffffffffffffffffffffffffffffffffff1673ffffffffffffffffffffffffffffffffffffffff16815260200190815260200160002060008282540192505081905550816002600083815260200190815260200160002060006101000a81548173ffffffffffffffffffffffffffffffffffffffff021916908373ffffffffffffffffffffffffffffffffffffffff160217905550808273ffffffffffffffffffffffffffffffffffffffff16600073ffffffffffffffffffffffffffffffffffffffff167fddf252ad1be2c89b69c2b068fc378daa952ba7f163c4a11628f55a4df523b3ef60405160405180910390a4611795600083836001611a78565b5050565b606060006040518060400160405280600181526020017f3b000000000000000000000000000000000000000000000000000000000000008152509050826000015183602001518460400151856060015186608001518760a001518860c0015160405160200161180e97969594939291906130dd565b604051602081830303815290604052915050919050565b61182e82611911565b61186d576040517f08c379a0000000000000000000000000000000000000000000000000000000008152600401611864906131c4565b60405180910390fd5b8060066000848152602001908152602001600020908161188d9190612b65565b505050565b606060405180602001604052806000815250905090565b60606118b482610eb9565b60006118be611892565b905060008151116118de5760405180602001604052806000815250611909565b806118e884611c05565b6040516020016118f9929190612d56565b6040516020818303038152906040525b915050919050565b60008073ffffffffffffffffffffffffffffffffffffffff1661193383611353565b73ffffffffffffffffffffffffffffffffffffffff1614159050919050565b6001811115611a7257600073ffffffffffffffffffffffffffffffffffffffff168473ffffffffffffffffffffffffffffffffffffffff16146119e65780600360008673ffffffffffffffffffffffffffffffffffffffff1673ffffffffffffffffffffffffffffffffffffffff16815260200190815260200160002060008282546119de91906131e4565b925050819055505b600073ffffffffffffffffffffffffffffffffffffffff168373ffffffffffffffffffffffffffffffffffffffff1614611a715780600360008573ffffffffffffffffffffffffffffffffffffffff1673ffffffffffffffffffffffffffffffffffffffff1681526020019081526020016000206000828254611a699190613218565b925050819055505b5b50505050565b50505050565b6000611a9f8473ffffffffffffffffffffffffffffffffffffffff16611cd3565b15611bf8578373ffffffffffffffffffffffffffffffffffffffff1663150b7a02611ac8610f04565b8786866040518563ffffffff1660e01b8152600401611aea94939291906132a1565b6020604051808303816000875af1925050508015611b2657506040513d601f19601f82011682018060405250810190611b239190613302565b60015b611ba8573d8060008114611b56576040519150601f19603f3d011682016040523d82523d6000602084013e611b5b565b606091505b506000815103611ba0576040517f08c379a0000000000000000000000000000000000000000000000000000000008152600401611b9790612f7c565b60405180910390fd5b805181602001fd5b63150b7a0260e01b7bffffffffffffffffffffffffffffffffffffffffffffffffffffffff1916817bffffffffffffffffffffffffffffffffffffffffffffffffffffffff191614915050611bfd565b600190505b949350505050565b606060006001611c1484611cf6565b01905060008167ffffffffffffffff811115611c3357611c326121a9565b5b6040519080825280601f01601f191660200182016040528015611c655781602001600182028036833780820191505090505b509050600082602001820190505b600115611cc8578080600190039150507f3031323334353637383961626364656600000000000000000000000000000000600a86061a8153600a8581611cbc57611cbb61332f565b5b04945060008503611c73575b819350505050919050565b6000808273ffffffffffffffffffffffffffffffffffffffff163b119050919050565b600080600090507a184f03e93ff9f4daa797ed6e38ed64bf6a1f0100000000000000008310611d54577a184f03e93ff9f4daa797ed6e38ed64bf6a1f0100000000000000008381611d4a57611d4961332f565b5b0492506040810190505b6d04ee2d6d415b85acef81000000008310611d91576d04ee2d6d415b85acef81000000008381611d8757611d8661332f565b5b0492506020810190505b662386f26fc100008310611dc057662386f26fc100008381611db657611db561332f565b5b0492506010810190505b6305f5e1008310611de9576305f5e1008381611ddf57611dde61332f565b5b0492506008810190505b6127108310611e0e576127108381611e0457611e0361332f565b5b0492506004810190505b60648310611e315760648381611e2757611e2661332f565b5b0492506002810190505b600a8310611e40576001810190505b80915050919050565b6000604051905090565b600080fd5b600080fd5b60007fffffffff0000000000000000000000000000000000000000000000000000000082169050919050565b611e9281611e5d565b8114611e9d57600080fd5b50565b600081359050611eaf81611e89565b92915050565b600060208284031215611ecb57611eca611e53565b5b6000611ed984828501611ea0565b91505092915050565b60008115159050919050565b611ef781611ee2565b82525050565b6000602082019050611f126000830184611eee565b92915050565b600081519050919050565b600082825260208201905092915050565b60005b83811015611f52578082015181840152602081019050611f37565b60008484015250505050565b6000601f19601f8301169050919050565b6000611f7a82611f18565b611f848185611f23565b9350611f94818560208601611f34565b611f9d81611f5e565b840191505092915050565b60006020820190508181036000830152611fc28184611f6f565b905092915050565b6000819050919050565b611fdd81611fca565b8114611fe857600080fd5b50565b600081359050611ffa81611fd4565b92915050565b60006020828403121561201657612015611e53565b5b600061202484828501611feb565b91505092915050565b600073ffffffffffffffffffffffffffffffffffffffff82169050919050565b60006120588261202d565b9050919050565b6120688161204d565b82525050565b6000602082019050612083600083018461205f565b92915050565b6120928161204d565b811461209d57600080fd5b50565b6000813590506120af81612089565b92915050565b600080604083850312156120cc576120cb611e53565b5b60006120da858286016120a0565b92505060206120eb85828601611feb565b9150509250929050565b60008060006060848603121561210e5761210d611e53565b5b600061211c868287016120a0565b935050602061212d868287016120a0565b925050604061213e86828701611feb565b9150509250925092565b60006020828403121561215e5761215d611e53565b5b600061216c848285016120a0565b91505092915050565b61217e81611fca565b82525050565b60006020820190506121996000830184612175565b92915050565b600080fd5b600080fd5b7f4e487b7100000000000000000000000000000000000000000000000000000000600052604160045260246000fd5b6121e182611f5e565b810181811067ffffffffffffffff82111715612200576121ff6121a9565b5b80604052505050565b6000612213611e49565b905061221f82826121d8565b919050565b600067ffffffffffffffff82111561223f5761223e6121a9565b5b61224882611f5e565b9050602081019050919050565b82818337600083830152505050565b600061227761227284612224565b612209565b905082815260208101848484011115612293576122926121a4565b5b61229e848285612255565b509392505050565b600082601f8301126122bb576122ba61219f565b5b81356122cb848260208601612264565b91505092915050565b6000806000606084860312156122ed576122ec611e53565b5b600084013567ffffffffffffffff81111561230b5761230a611e58565b5b612317868287016122a6565b935050602084013567ffffffffffffffff81111561233857612337611e58565b5b612344868287016122a6565b9250506040612355868287016120a0565b9150509250925092565b61236881611ee2565b811461237357600080fd5b50565b6000813590506123858161235f565b92915050565b600080604083850312156123a2576123a1611e53565b5b60006123b0858286016120a0565b92505060206123c185828601612376565b9150509250929050565b600067ffffffffffffffff8211156123e6576123e56121a9565b5b6123ef82611f5e565b9050602081019050919050565b600061240f61240a846123cb565b612209565b90508281526020810184848401111561242b5761242a6121a4565b5b612436848285612255565b509392505050565b600082601f8301126124535761245261219f565b5b81356124638482602086016123fc565b91505092915050565b6000806000806080858703121561248657612485611e53565b5b6000612494878288016120a0565b94505060206124a5878288016120a0565b93505060406124b687828801611feb565b925050606085013567ffffffffffffffff8111156124d7576124d6611e58565b5b6124e38782880161243e565b91505092959194509250565b600080600080600080600080610100898b0312156125105761250f611e53565b5b600061251e8b828c016120a0565b985050602089013567ffffffffffffffff81111561253f5761253e611e58565b5b61254b8b828c016122a6565b975050604089013567ffffffffffffffff81111561256c5761256b611e58565b5b6125788b828c016122a6565b965050606089013567ffffffffffffffff81111561259957612598611e58565b5b6125a58b828c016122a6565b95505060806125b68b828c01611feb565b94505060a06125c78b828c01611feb565b93505060c06125d88b828c01612376565b92505060e06125e98b828c01611feb565b9150509295985092959890939650565b600080604083850312156126105761260f611e53565b5b600061261e858286016120a0565b925050602061262f858286016120a0565b9150509250929050565b7f4e487b7100000000000000000000000000000000000000000000000000000000600052602260045260246000fd5b6000600282049050600182168061268057607f821691505b60208210810361269357612692612639565b5b50919050565b7f4552433732313a20617070726f76616c20746f2063757272656e74206f776e6560008201527f7200000000000000000000000000000000000000000000000000000000000000602082015250565b60006126f5602183611f23565b915061270082612699565b604082019050919050565b60006020820190508181036000830152612724816126e8565b9050919050565b7f4552433732313a20617070726f76652063616c6c6572206973206e6f7420746f60008201527f6b656e206f776e6572206f7220617070726f76656420666f7220616c6c000000602082015250565b6000612787603d83611f23565b91506127928261272b565b604082019050919050565b600060208201905081810360008301526127b68161277a565b9050919050565b7f4552433732313a2063616c6c6572206973206e6f7420746f6b656e206f776e6560008201527f72206f7220617070726f76656400000000000000000000000000000000000000602082015250565b6000612819602d83611f23565b9150612824826127bd565b604082019050919050565b600060208201905081810360008301526128488161280c565b9050919050565b7f4552433732313a20696e76616c696420746f6b656e2049440000000000000000600082015250565b6000612885601883611f23565b91506128908261284f565b602082019050919050565b600060208201905081810360008301526128b481612878565b9050919050565b7f4552433732313a2061646472657373207a65726f206973206e6f74206120766160008201527f6c6964206f776e65720000000000000000000000000000000000000000000000602082015250565b6000612917602983611f23565b9150612922826128bb565b604082019050919050565b600060208201905081810360008301526129468161290a565b9050919050565b7f4e6f2073756666696369656e7420726967687400000000000000000000000000600082015250565b6000612983601383611f23565b915061298e8261294d565b602082019050919050565b600060208201905081810360008301526129b281612976565b9050919050565b60008190508160005260206000209050919050565b60006020601f8301049050919050565b600082821b905092915050565b600060088302612a1b7fffffffffffffffffffffffffffffffffffffffffffffffffffffffffffffffff826129de565b612a2586836129de565b95508019841693508086168417925050509392505050565b6000819050919050565b6000612a62612a5d612a5884611fca565b612a3d565b611fca565b9050919050565b6000819050919050565b612a7c83612a47565b612a90612a8882612a69565b8484546129eb565b825550505050565b600090565b612aa5612a98565b612ab0818484612a73565b505050565b5b81811015612ad457612ac9600082612a9d565b600181019050612ab6565b5050565b601f821115612b1957612aea816129b9565b612af3846129ce565b81016020851015612b02578190505b612b16612b0e856129ce565b830182612ab5565b50505b505050565b600082821c905092915050565b6000612b3c60001984600802612b1e565b1980831691505092915050565b6000612b558383612b2b565b9150826002028217905092915050565b612b6e82611f18565b67ffffffffffffffff811115612b8757612b866121a9565b5b612b918254612668565b612b9c828285612ad8565b600060209050601f831160018114612bcf5760008415612bbd578287015190505b612bc78582612b49565b865550612c2f565b601f198416612bdd866129b9565b60005b82811015612c0557848901518255600182019150602085019450602081019050612be0565b86831015612c225784890151612c1e601f891682612b2b565b8355505b6001600288020188555050505b505050505050565b7f4e487b7100000000000000000000000000000000000000000000000000000000600052601160045260246000fd5b6000612c7182611fca565b91507fffffffffffffffffffffffffffffffffffffffffffffffffffffffffffffffff8203612ca357612ca2612c37565b5b600182019050919050565b7f4e6565647320746f2062652076616c696420696e737469747574650000000000600082015250565b6000612ce4601b83611f23565b9150612cef82612cae565b602082019050919050565b60006020820190508181036000830152612d1381612cd7565b9050919050565b600081905092915050565b6000612d3082611f18565b612d3a8185612d1a565b9350612d4a818560208601611f34565b80840191505092915050565b6000612d628285612d25565b9150612d6e8284612d25565b91508190509392505050565b7f4552433732313a207472616e736665722066726f6d20696e636f72726563742060008201527f6f776e6572000000000000000000000000000000000000000000000000000000602082015250565b6000612dd6602583611f23565b9150612de182612d7a565b604082019050919050565b60006020820190508181036000830152612e0581612dc9565b9050919050565b7f4552433732313a207472616e7366657220746f20746865207a65726f2061646460008201527f7265737300000000000000000000000000000000000000000000000000000000602082015250565b6000612e68602483611f23565b9150612e7382612e0c565b604082019050919050565b60006020820190508181036000830152612e9781612e5b565b9050919050565b7f4552433732313a20617070726f766520746f2063616c6c657200000000000000600082015250565b6000612ed4601983611f23565b9150612edf82612e9e565b602082019050919050565b60006020820190508181036000830152612f0381612ec7565b9050919050565b7f4552433732313a207472616e7366657220746f206e6f6e20455243373231526560008201527f63656976657220696d706c656d656e7465720000000000000000000000000000602082015250565b6000612f66603283611f23565b9150612f7182612f0a565b604082019050919050565b60006020820190508181036000830152612f9581612f59565b9050919050565b7f4552433732313a206d696e7420746f20746865207a65726f2061646472657373600082015250565b6000612fd2602083611f23565b9150612fdd82612f9c565b602082019050919050565b6000602082019050818103600083015261300181612fc5565b9050919050565b7f4552433732313a20746f6b656e20616c7265616479206d696e74656400000000600082015250565b600061303e601c83611f23565b915061304982613008565b602082019050919050565b6000602082019050818103600083015261306d81613031565b9050919050565b6000819050919050565b61308f61308a82611fca565b613074565b82525050565b60008160f81b9050919050565b60006130ad82613095565b9050919050565b60006130bf826130a2565b9050919050565b6130d76130d282611ee2565b6130b4565b82525050565b60006130e9828a612d25565b91506130f58289612d25565b9150613101828861307e565b602082019150613111828761307e565b60208201915061312182866130c6565b600182019150613131828561307e565b6020820191506131418284612d25565b915081905098975050505050505050565b7f45524337323155524953746f726167653a2055524920736574206f66206e6f6e60008201527f6578697374656e7420746f6b656e000000000000000000000000000000000000602082015250565b60006131ae602e83611f23565b91506131b982613152565b604082019050919050565b600060208201905081810360008301526131dd816131a1565b9050919050565b60006131ef82611fca565b91506131fa83611fca565b925082820390508181111561321257613211612c37565b5b92915050565b600061322382611fca565b915061322e83611fca565b925082820190508082111561324657613245612c37565b5b92915050565b600081519050919050565b600082825260208201905092915050565b60006132738261324c565b61327d8185613257565b935061328d818560208601611f34565b61329681611f5e565b840191505092915050565b60006080820190506132b6600083018761205f565b6132c3602083018661205f565b6132d06040830185612175565b81810360608301526132e28184613268565b905095945050505050565b6000815190506132fc81611e89565b92915050565b60006020828403121561331857613317611e53565b5b6000613326848285016132ed565b91505092915050565b7f4e487b7100000000000000000000000000000000000000000000000000000000600052601260045260246000fdfea264697066735822122065ec2798776d1fb37255908075c4962b77433e0c32ac3bed0b7b8409fa8c5c4364736f6c63430008110033",
  "linkReferences": {},
  "deployedLinkReferences": {}
}