{
  "_format": "hh-sol-artifact-1",
  "contractName": "ProfessionalValidation",
  "sourceName": "contracts/sbt.sol",
  "abi": [
    {
      "inputs": [],
      "stateMutability": "nonpayable",
      "type": "constructor"
    },
    {
      "anonymous": false,
      "inputs": [
        {
          "indexed": true,
          "internalType": "address",
          "name": "owner",
          "type": "address"
        },
        {
          "indexed": true,
          "internalType": "address",
          "name": "approved",
          "type": "address"
        },
        {
          "indexed": true,
          "internalType": "uint256",
          "name": "tokenId",
          "type": "uint256"
        }
      ],
      "name": "Approval",
      "type": "event"
    },
    {
      "anonymous": false,
      "inputs": [
        {
          "indexed": true,
          "internalType": "address",
          "name": "owner",
          "type": "address"
        },
        {
          "indexed": true,
          "internalType": "address",
          "name": "operator",
          "type": "address"
        },
        {
          "indexed": false,
          "internalType": "bool",
          "name": "approved",
          "type": "bool"
        }
      ],
      "name": "ApprovalForAll",
      "type": "event"
    },
    {
      "anonymous": false,
      "inputs": [
        {
          "indexed": true,
          "internalType": "address",
          "name": "from",
          "type": "address"
        },
        {
          "indexed": true,
          "internalType": "address",
          "name": "to",
          "type": "address"
        },
        {
          "indexed": true,
          "internalType": "uint256",
          "name": "tokenId",
          "type": "uint256"
        }
      ],
      "name": "Transfer",
      "type": "event"
    },
    {
      "inputs": [
        {
          "internalType": "string",
          "name": "name",
          "type": "string"
        },
        {
          "internalType": "string",
          "name": "description",
          "type": "string"
        },
        {
          "internalType": "address",
          "name": "institute_adress",
          "type": "address"
        }
      ],
      "name": "addInstitute",
      "outputs": [],
      "stateMutability": "nonpayable",
      "type": "function"
    },
    {
      "inputs": [
        {
          "internalType": "address",
          "name": "to",
          "type": "address"
        },
        {
          "internalType": "uint256",
          "name": "tokenId",
          "type": "uint256"
        }
      ],
      "name": "approve",
      "outputs": [],
      "stateMutability": "nonpayable",
      "type": "function"
    },
    {
      "inputs": [
        {
          "internalType": "address",
          "name": "owner",
          "type": "address"
        }
      ],
      "name": "balanceOf",
      "outputs": [
        {
          "internalType": "uint256",
          "name": "",
          "type": "uint256"
        }
      ],
      "stateMutability": "view",
      "type": "function"
    },
    {
      "inputs": [
        {
          "internalType": "uint256",
          "name": "tokenId",
          "type": "uint256"
        }
      ],
      "name": "getApproved",
      "outputs": [
        {
          "internalType": "address",
          "name": "",
          "type": "address"
        }
      ],
      "stateMutability": "view",
      "type": "function"
    },
    {
      "inputs": [],
      "name": "instituteCount",
      "outputs": [
        {
          "internalType": "uint256",
          "name": "",
          "type": "uint256"
        }
      ],
      "stateMutability": "view",
      "type": "function"
    },
    {
      "inputs": [
        {
          "internalType": "address",
          "name": "owner",
          "type": "address"
        },
        {
          "internalType": "address",
          "name": "operator",
          "type": "address"
        }
      ],
      "name": "isApprovedForAll",
      "outputs": [
        {
          "internalType": "bool",
          "name": "",
          "type": "bool"
        }
      ],
      "stateMutability": "view",
      "type": "function"
    },
    {
      "inputs": [
        {
          "internalType": "address",
          "name": "_admin",
          "type": "address"
        }
      ],
      "name": "is_admin",
      "outputs": [
        {
          "internalType": "bool",
          "name": "",
          "type": "bool"
        }
      ],
      "stateMutability": "view",
      "type": "function"
    },
    {
      "inputs": [
        {
          "internalType": "address",
          "name": "_institute",
          "type": "address"
        }
      ],
      "name": "is_institute",
      "outputs": [
        {
          "internalType": "bool",
          "name": "",
          "type": "bool"
        }
      ],
      "stateMutability": "view",
      "type": "function"
    },
    {
      "inputs": [
        {
          "internalType": "address",
          "name": "receiver",
          "type": "address"
        },
        {
          "internalType": "string",
          "name": "exp_type",
          "type": "string"
        },
        {
          "internalType": "string",
          "name": "title",
          "type": "string"
        },
        {
          "internalType": "string",
          "name": "description",
          "type": "string"
        },
        {
          "internalType": "uint256",
          "name": "start_date",
          "type": "uint256"
        },
        {
          "internalType": "uint256",
          "name": "end_date",
          "type": "uint256"
        },
        {
          "internalType": "bool",
          "name": "has_expiry",
          "type": "bool"
        },
        {
          "internalType": "uint256",
          "name": "expiry_date",
          "type": "uint256"
        }
      ],
      "name": "mint",
      "outputs": [
        {
          "internalType": "bool",
          "name": "",
          "type": "bool"
        }
      ],
      "stateMutability": "nonpayable",
      "type": "function"
    },
    {
      "inputs": [],
      "name": "name",
      "outputs": [
        {
          "internalType": "string",
          "name": "",
          "type": "string"
        }
      ],
      "stateMutability": "view",
      "type": "function"
    },
    {
      "inputs": [
        {
          "internalType": "uint256",
          "name": "tokenId",
          "type": "uint256"
        }
      ],
      "name": "ownerOf",
      "outputs": [
        {
          "internalType": "address",
          "name": "",
          "type": "address"
        }
      ],
      "stateMutability": "view",
      "type": "function"
    },
    {
      "inputs": [
        {
          "internalType": "address",
          "name": "from",
          "type": "address"
        },
        {
          "internalType": "address",
          "name": "to",
          "type": "address"
        },
        {
          "internalType": "uint256",
          "name": "tokenId",
          "type": "uint256"
        }
      ],
      "name": "safeTransferFrom",
      "outputs": [],
      "stateMutability": "nonpayable",
      "type": "function"
    },
    {
      "inputs": [
        {
          "internalType": "address",
          "name": "from",
          "type": "address"
        },
        {
          "internalType": "address",
          "name": "to",
          "type": "address"
        },
        {
          "internalType": "uint256",
          "name": "tokenId",
          "type": "uint256"
        },
        {
          "internalType": "bytes",
          "name": "data",
          "type": "bytes"
        }
      ],
      "name": "safeTransferFrom",
      "outputs": [],
      "stateMutability": "nonpayable",
      "type": "function"
    },
    {
      "inputs": [
        {
          "internalType": "address",
          "name": "operator",
          "type": "address"
        },
        {
          "internalType": "bool",
          "name": "approved",
          "type": "bool"
        }
      ],
      "name": "setApprovalForAll",
      "outputs": [],
      "stateMutability": "nonpayable",
      "type": "function"
    },
    {
      "inputs": [
        {
          "internalType": "bytes4",
          "name": "interfaceId",
          "type": "bytes4"
        }
      ],
      "name": "supportsInterface",
      "outputs": [
        {
          "internalType": "bool",
          "name": "",
          "type": "bool"
        }
      ],
      "stateMutability": "view",
      "type": "function"
    },
    {
      "inputs": [],
      "name": "symbol",
      "outputs": [
        {
          "internalType": "string",
          "name": "",
          "type": "string"
        }
      ],
      "stateMutability": "view",
      "type": "function"
    },
    {
      "inputs": [
        {
          "internalType": "uint256",
          "name": "tokenId",
          "type": "uint256"
        }
      ],
      "name": "tokenURI",
      "outputs": [
        {
          "internalType": "string",
          "name": "",
          "type": "string"
        }
      ],
      "stateMutability": "view",
      "type": "function"
    },
    {
      "inputs": [
        {
          "internalType": "address",
          "name": "from",
          "type": "address"
        },
        {
          "internalType": "address",
          "name": "to",
          "type": "address"
        },
        {
          "internalType": "uint256",
          "name": "tokenId",
          "type": "uint256"
        }
      ],
      "name": "transferFrom",
      "outputs": [],
      "stateMutability": "nonpayable",
      "type": "function"
    }
  ],
  "bytecode": "0x60806040523480156200001157600080fd5b506040518060400160405280601b81526020017f50726f66657373696f6e616c20457870657269656e63652053425400000000008152506040518060400160405280600681526020017f455850534254000000000000000000000000000000000000000000000000000081525081600090816200008f919062000365565b508060019081620000a1919062000365565b50505033600760006101000a81548173ffffffffffffffffffffffffffffffffffffffff021916908373ffffffffffffffffffffffffffffffffffffffff1602179055506200044c565b600081519050919050565b7f4e487b7100000000000000000000000000000000000000000000000000000000600052604160045260246000fd5b7f4e487b7100000000000000000000000000000000000000000000000000000000600052602260045260246000fd5b600060028204905060018216806200016d57607f821691505b60208210810362000183576200018262000125565b5b50919050565b60008190508160005260206000209050919050565b60006020601f8301049050919050565b600082821b905092915050565b600060088302620001ed7fffffffffffffffffffffffffffffffffffffffffffffffffffffffffffffffff82620001ae565b620001f98683620001ae565b95508019841693508086168417925050509392505050565b6000819050919050565b6000819050919050565b600062000246620002406200023a8462000211565b6200021b565b62000211565b9050919050565b6000819050919050565b620002628362000225565b6200027a62000271826200024d565b848454620001bb565b825550505050565b600090565b6200029162000282565b6200029e81848462000257565b505050565b5b81811015620002c657620002ba60008262000287565b600181019050620002a4565b5050565b601f8211156200031557620002df8162000189565b620002ea846200019e565b81016020851015620002fa578190505b6200031262000309856200019e565b830182620002a3565b50505b505050565b600082821c905092915050565b60006200033a600019846008026200031a565b1980831691505092915050565b600062000355838362000327565b9150826002028217905092915050565b6200037082620000eb565b67ffffffffffffffff8111156200038c576200038b620000f6565b5b62000398825462000154565b620003a5828285620002ca565b600060209050601f831160018114620003dd5760008415620003c8578287015190505b620003d4858262000347565b86555062000444565b601f198416620003ed8662000189565b60005b828110156200041757848901518255600182019150602085019450602081019050620003f0565b8683101562000437578489015162000433601f89168262000327565b8355505b6001600288020188555050505b505050505050565b613711806200045c6000396000f3fe608060405234801561001057600080fd5b50600436106101165760003560e01c806395d89b41116100a2578063b88d4fde11610071578063b88d4fde14610303578063c6a43ef31461031f578063c87b56dd1461034f578063e985e9c51461037f578063fefb21a4146103af57610116565b806395d89b4114610269578063a22cb46514610287578063a673dd4b146102a3578063aac132de146102d357610116565b806323b872dd116100e957806323b872dd146101b557806342842e0e146101d15780636352211e146101ed57806370a082311461021d5780638f8e94c91461024d57610116565b806301ffc9a71461011b57806306fdde031461014b578063081812fc14610169578063095ea7b314610199575b600080fd5b61013560048036038101906101309190611f6d565b6103cd565b6040516101429190611fb5565b60405180910390f35b6101536104af565b6040516101609190612060565b60405180910390f35b610183600480360381019061017e91906120b8565b610541565b6040516101909190612126565b60405180910390f35b6101b360048036038101906101ae919061216d565b610587565b005b6101cf60048036038101906101ca91906121ad565b61069e565b005b6101eb60048036038101906101e691906121ad565b6106fe565b005b610207600480360381019061020291906120b8565b61071e565b6040516102149190612126565b60405180910390f35b61023760048036038101906102329190612200565b6107a4565b604051610244919061223c565b60405180910390f35b6102676004803603810190610262919061238c565b61085b565b005b6102716109ba565b60405161027e9190612060565b60405180910390f35b6102a1600480360381019061029c9190612443565b610a4c565b005b6102bd60048036038101906102b89190612200565b610a62565b6040516102ca9190611fb5565b60405180910390f35b6102ed60048036038101906102e89190612200565b610acc565b6040516102fa9190611fb5565b60405180910390f35b61031d60048036038101906103189190612524565b610b36565b005b610339600480360381019061033491906125a7565b610b98565b6040516103469190611fb5565b60405180910390f35b610369600480360381019061036491906120b8565b610d8c565b6040516103769190612060565b60405180910390f35b610399600480360381019061039491906126b1565b610e9e565b6040516103a69190611fb5565b60405180910390f35b6103b7610f32565b6040516103c4919061223c565b60405180910390f35b60007f80ac58cd000000000000000000000000000000000000000000000000000000007bffffffffffffffffffffffffffffffffffffffffffffffffffffffff1916827bffffffffffffffffffffffffffffffffffffffffffffffffffffffff1916148061049857507f5b5e139f000000000000000000000000000000000000000000000000000000007bffffffffffffffffffffffffffffffffffffffffffffffffffffffff1916827bffffffffffffffffffffffffffffffffffffffffffffffffffffffff1916145b806104a857506104a782610f3c565b5b9050919050565b6060600080546104be90612720565b80601f01602080910402602001604051908101604052809291908181526020018280546104ea90612720565b80156105375780601f1061050c57610100808354040283529160200191610537565b820191906000526020600020905b81548152906001019060200180831161051a57829003601f168201915b5050505050905090565b600061054c82610fa6565b6004600083815260200190815260200160002060009054906101000a900473ffffffffffffffffffffffffffffffffffffffff169050919050565b60006105928261071e565b90508073ffffffffffffffffffffffffffffffffffffffff168373ffffffffffffffffffffffffffffffffffffffff1603610602576040517f08c379a00000000000000000000000000000000000000000000000000000000081526004016105f9906127c3565b60405180910390fd5b8073ffffffffffffffffffffffffffffffffffffffff16610621610ff1565b73ffffffffffffffffffffffffffffffffffffffff161480610650575061064f8161064a610ff1565b610e9e565b5b61068f576040517f08c379a000000000000000000000000000000000000000000000000000000000815260040161068690612855565b60405180910390fd5b6106998383610ff9565b505050565b6106af6106a9610ff1565b826110b2565b6106ee576040517f08c379a00000000000000000000000000000000000000000000000000000000081526004016106e5906128e7565b60405180910390fd5b6106f9838383611147565b505050565b61071983838360405180602001604052806000815250610b36565b505050565b60008061072a83611440565b9050600073ffffffffffffffffffffffffffffffffffffffff168173ffffffffffffffffffffffffffffffffffffffff160361079b576040517f08c379a000000000000000000000000000000000000000000000000000000000815260040161079290612953565b60405180910390fd5b80915050919050565b60008073ffffffffffffffffffffffffffffffffffffffff168273ffffffffffffffffffffffffffffffffffffffff1603610814576040517f08c379a000000000000000000000000000000000000000000000000000000000815260040161080b906129e5565b60405180910390fd5b600360008373ffffffffffffffffffffffffffffffffffffffff1673ffffffffffffffffffffffffffffffffffffffff168152602001908152602001600020549050919050565b3373ffffffffffffffffffffffffffffffffffffffff16600760009054906101000a900473ffffffffffffffffffffffffffffffffffffffff1673ffffffffffffffffffffffffffffffffffffffff16146108eb576040517f08c379a00000000000000000000000000000000000000000000000000000000081526004016108e290612a51565b60405180910390fd5b6000604051806060016040528085815260200184815260200160011515815250905080600960008473ffffffffffffffffffffffffffffffffffffffff1673ffffffffffffffffffffffffffffffffffffffff16815260200190815260200160002060008201518160000190816109629190612c1d565b5060208201518160010190816109789190612c1d565b5060408201518160020160006101000a81548160ff021916908315150217905550905050600860008154809291906109af90612d1e565b919050555050505050565b6060600180546109c990612720565b80601f01602080910402602001604051908101604052809291908181526020018280546109f590612720565b8015610a425780601f10610a1757610100808354040283529160200191610a42565b820191906000526020600020905b815481529060010190602001808311610a2557829003601f168201915b5050505050905090565b610a5e610a57610ff1565b838361147d565b5050565b6000600960008373ffffffffffffffffffffffffffffffffffffffff1673ffffffffffffffffffffffffffffffffffffffff16815260200190815260200160002060020160009054906101000a900460ff1615610ac25760019050610ac7565b600090505b919050565b6000600760009054906101000a900473ffffffffffffffffffffffffffffffffffffffff1673ffffffffffffffffffffffffffffffffffffffff168273ffffffffffffffffffffffffffffffffffffffff1603610b2c5760019050610b31565b600090505b919050565b610b47610b41610ff1565b836110b2565b610b86576040517f08c379a0000000000000000000000000000000000000000000000000000000008152600401610b7d906128e7565b60405180910390fd5b610b92848484846115e9565b50505050565b600060011515600960003373ffffffffffffffffffffffffffffffffffffffff1673ffffffffffffffffffffffffffffffffffffffff16815260200190815260200160002060020160009054906101000a900460ff16151514610c30576040517f08c379a0000000000000000000000000000000000000000000000000000000008152600401610c2790612db2565b60405180910390fd5b60003390506000600960008373ffffffffffffffffffffffffffffffffffffffff1673ffffffffffffffffffffffffffffffffffffffff1681526020019081526020016000206000018054610c8490612720565b80601f0160208091040260200160405190810160405280929190818152602001828054610cb090612720565b8015610cfd5780601f10610cd257610100808354040283529160200191610cfd565b820191906000526020600020905b815481529060010190602001808311610ce057829003601f168201915b5050505050905060006040518061010001604052808381526020018c81526020018b815260200189815260200188815260200187151581526020018681526020018a8152509050610d4e600b611645565b6000610d5a600b61165b565b9050610d668d82611669565b610d7881610d7384611886565b6118dd565b600194505050505098975050505050505050565b6060610d9782610fa6565b6000600660008481526020019081526020016000208054610db790612720565b80601f0160208091040260200160405190810160405280929190818152602001828054610de390612720565b8015610e305780601f10610e0557610100808354040283529160200191610e30565b820191906000526020600020905b815481529060010190602001808311610e1357829003601f168201915b505050505090506000610e4161194a565b90506000815103610e56578192505050610e99565b600082511115610e8b578082604051602001610e73929190612e0e565b60405160208183030381529060405292505050610e99565b610e9484611961565b925050505b919050565b6000600560008473ffffffffffffffffffffffffffffffffffffffff1673ffffffffffffffffffffffffffffffffffffffff16815260200190815260200160002060008373ffffffffffffffffffffffffffffffffffffffff1673ffffffffffffffffffffffffffffffffffffffff16815260200190815260200160002060009054906101000a900460ff16905092915050565b6000600854905090565b60007f01ffc9a7000000000000000000000000000000000000000000000000000000007bffffffffffffffffffffffffffffffffffffffffffffffffffffffff1916827bffffffffffffffffffffffffffffffffffffffffffffffffffffffff1916149050919050565b610faf816119c9565b610fee576040517f08c379a0000000000000000000000000000000000000000000000000000000008152600401610fe590612953565b60405180910390fd5b50565b600033905090565b816004600083815260200190815260200160002060006101000a81548173ffffffffffffffffffffffffffffffffffffffff021916908373ffffffffffffffffffffffffffffffffffffffff160217905550808273ffffffffffffffffffffffffffffffffffffffff1661106c8361071e565b73ffffffffffffffffffffffffffffffffffffffff167f8c5be1e5ebec7d5bd14f71427d1e84f3dd0314c0f7b2291e5b200ac8c7c3b92560405160405180910390a45050565b6000806110be8361071e565b90508073ffffffffffffffffffffffffffffffffffffffff168473ffffffffffffffffffffffffffffffffffffffff16148061110057506110ff8185610e9e565b5b8061113e57508373ffffffffffffffffffffffffffffffffffffffff1661112684610541565b73ffffffffffffffffffffffffffffffffffffffff16145b91505092915050565b8273ffffffffffffffffffffffffffffffffffffffff166111678261071e565b73ffffffffffffffffffffffffffffffffffffffff16146111bd576040517f08c379a00000000000000000000000000000000000000000000000000000000081526004016111b490612ea4565b60405180910390fd5b600073ffffffffffffffffffffffffffffffffffffffff168273ffffffffffffffffffffffffffffffffffffffff160361122c576040517f08c379a000000000000000000000000000000000000000000000000000000000815260040161122390612f36565b60405180910390fd5b6112398383836001611a0a565b8273ffffffffffffffffffffffffffffffffffffffff166112598261071e565b73ffffffffffffffffffffffffffffffffffffffff16146112af576040517f08c379a00000000000000000000000000000000000000000000000000000000081526004016112a690612ea4565b60405180910390fd5b6004600082815260200190815260200160002060006101000a81549073ffffffffffffffffffffffffffffffffffffffff02191690556001600360008573ffffffffffffffffffffffffffffffffffffffff1673ffffffffffffffffffffffffffffffffffffffff168152602001908152602001600020600082825403925050819055506001600360008473ffffffffffffffffffffffffffffffffffffffff1673ffffffffffffffffffffffffffffffffffffffff16815260200190815260200160002060008282540192505081905550816002600083815260200190815260200160002060006101000a81548173ffffffffffffffffffffffffffffffffffffffff021916908373ffffffffffffffffffffffffffffffffffffffff160217905550808273ffffffffffffffffffffffffffffffffffffffff168473ffffffffffffffffffffffffffffffffffffffff167fddf252ad1be2c89b69c2b068fc378daa952ba7f163c4a11628f55a4df523b3ef60405160405180910390a461143b8383836001611b30565b505050565b60006002600083815260200190815260200160002060009054906101000a900473ffffffffffffffffffffffffffffffffffffffff169050919050565b8173ffffffffffffffffffffffffffffffffffffffff168373ffffffffffffffffffffffffffffffffffffffff16036114eb576040517f08c379a00000000000000000000000000000000000000000000000000000000081526004016114e290612fa2565b60405180910390fd5b80600560008573ffffffffffffffffffffffffffffffffffffffff1673ffffffffffffffffffffffffffffffffffffffff16815260200190815260200160002060008473ffffffffffffffffffffffffffffffffffffffff1673ffffffffffffffffffffffffffffffffffffffff16815260200190815260200160002060006101000a81548160ff0219169083151502179055508173ffffffffffffffffffffffffffffffffffffffff168373ffffffffffffffffffffffffffffffffffffffff167f17307eab39ab6107e8899845ad3d59bd9653f200f220920489ca2b5937696c31836040516115dc9190611fb5565b60405180910390a3505050565b6115f4848484611147565b61160084848484611b36565b61163f576040517f08c379a000000000000000000000000000000000000000000000000000000000815260040161163690613034565b60405180910390fd5b50505050565b6001816000016000828254019250508190555050565b600081600001549050919050565b600073ffffffffffffffffffffffffffffffffffffffff168273ffffffffffffffffffffffffffffffffffffffff16036116d8576040517f08c379a00000000000000000000000000000000000000000000000000000000081526004016116cf906130a0565b60405180910390fd5b6116e1816119c9565b15611721576040517f08c379a00000000000000000000000000000000000000000000000000000000081526004016117189061310c565b60405180910390fd5b61172f600083836001611a0a565b611738816119c9565b15611778576040517f08c379a000000000000000000000000000000000000000000000000000000000815260040161176f9061310c565b60405180910390fd5b6001600360008473ffffffffffffffffffffffffffffffffffffffff1673ffffffffffffffffffffffffffffffffffffffff16815260200190815260200160002060008282540192505081905550816002600083815260200190815260200160002060006101000a81548173ffffffffffffffffffffffffffffffffffffffff021916908373ffffffffffffffffffffffffffffffffffffffff160217905550808273ffffffffffffffffffffffffffffffffffffffff16600073ffffffffffffffffffffffffffffffffffffffff167fddf252ad1be2c89b69c2b068fc378daa952ba7f163c4a11628f55a4df523b3ef60405160405180910390a4611882600083836001611b30565b5050565b6060816000015182602001518360400151846060015185608001518660a001518760c001518860e001516040516020016118c79897969594939291906133f5565b6040516020818303038152906040529050919050565b6118e6826119c9565b611925576040517f08c379a000000000000000000000000000000000000000000000000000000000815260040161191c90613541565b60405180910390fd5b806006600084815260200190815260200160002090816119459190612c1d565b505050565b606060405180602001604052806000815250905090565b606061196c82610fa6565b600061197661194a565b9050600081511161199657604051806020016040528060008152506119c1565b806119a084611cbd565b6040516020016119b1929190612e0e565b6040516020818303038152906040525b915050919050565b60008073ffffffffffffffffffffffffffffffffffffffff166119eb83611440565b73ffffffffffffffffffffffffffffffffffffffff1614159050919050565b6001811115611b2a57600073ffffffffffffffffffffffffffffffffffffffff168473ffffffffffffffffffffffffffffffffffffffff1614611a9e5780600360008673ffffffffffffffffffffffffffffffffffffffff1673ffffffffffffffffffffffffffffffffffffffff1681526020019081526020016000206000828254611a969190613561565b925050819055505b600073ffffffffffffffffffffffffffffffffffffffff168373ffffffffffffffffffffffffffffffffffffffff1614611b295780600360008573ffffffffffffffffffffffffffffffffffffffff1673ffffffffffffffffffffffffffffffffffffffff1681526020019081526020016000206000828254611b219190613595565b925050819055505b5b50505050565b50505050565b6000611b578473ffffffffffffffffffffffffffffffffffffffff16611d8b565b15611cb0578373ffffffffffffffffffffffffffffffffffffffff1663150b7a02611b80610ff1565b8786866040518563ffffffff1660e01b8152600401611ba2949392919061361e565b6020604051808303816000875af1925050508015611bde57506040513d601f19601f82011682018060405250810190611bdb919061367f565b60015b611c60573d8060008114611c0e576040519150601f19603f3d011682016040523d82523d6000602084013e611c13565b606091505b506000815103611c58576040517f08c379a0000000000000000000000000000000000000000000000000000000008152600401611c4f90613034565b60405180910390fd5b805181602001fd5b63150b7a0260e01b7bffffffffffffffffffffffffffffffffffffffffffffffffffffffff1916817bffffffffffffffffffffffffffffffffffffffffffffffffffffffff191614915050611cb5565b600190505b949350505050565b606060006001611ccc84611dae565b01905060008167ffffffffffffffff811115611ceb57611cea612261565b5b6040519080825280601f01601f191660200182016040528015611d1d5781602001600182028036833780820191505090505b509050600082602001820190505b600115611d80578080600190039150507f3031323334353637383961626364656600000000000000000000000000000000600a86061a8153600a8581611d7457611d736136ac565b5b04945060008503611d2b575b819350505050919050565b6000808273ffffffffffffffffffffffffffffffffffffffff163b119050919050565b600080600090507a184f03e93ff9f4daa797ed6e38ed64bf6a1f0100000000000000008310611e0c577a184f03e93ff9f4daa797ed6e38ed64bf6a1f0100000000000000008381611e0257611e016136ac565b5b0492506040810190505b6d04ee2d6d415b85acef81000000008310611e49576d04ee2d6d415b85acef81000000008381611e3f57611e3e6136ac565b5b0492506020810190505b662386f26fc100008310611e7857662386f26fc100008381611e6e57611e6d6136ac565b5b0492506010810190505b6305f5e1008310611ea1576305f5e1008381611e9757611e966136ac565b5b0492506008810190505b6127108310611ec6576127108381611ebc57611ebb6136ac565b5b0492506004810190505b60648310611ee95760648381611edf57611ede6136ac565b5b0492506002810190505b600a8310611ef8576001810190505b80915050919050565b6000604051905090565b600080fd5b600080fd5b60007fffffffff0000000000000000000000000000000000000000000000000000000082169050919050565b611f4a81611f15565b8114611f5557600080fd5b50565b600081359050611f6781611f41565b92915050565b600060208284031215611f8357611f82611f0b565b5b6000611f9184828501611f58565b91505092915050565b60008115159050919050565b611faf81611f9a565b82525050565b6000602082019050611fca6000830184611fa6565b92915050565b600081519050919050565b600082825260208201905092915050565b60005b8381101561200a578082015181840152602081019050611fef565b60008484015250505050565b6000601f19601f8301169050919050565b600061203282611fd0565b61203c8185611fdb565b935061204c818560208601611fec565b61205581612016565b840191505092915050565b6000602082019050818103600083015261207a8184612027565b905092915050565b6000819050919050565b61209581612082565b81146120a057600080fd5b50565b6000813590506120b28161208c565b92915050565b6000602082840312156120ce576120cd611f0b565b5b60006120dc848285016120a3565b91505092915050565b600073ffffffffffffffffffffffffffffffffffffffff82169050919050565b6000612110826120e5565b9050919050565b61212081612105565b82525050565b600060208201905061213b6000830184612117565b92915050565b61214a81612105565b811461215557600080fd5b50565b60008135905061216781612141565b92915050565b6000806040838503121561218457612183611f0b565b5b600061219285828601612158565b92505060206121a3858286016120a3565b9150509250929050565b6000806000606084860312156121c6576121c5611f0b565b5b60006121d486828701612158565b93505060206121e586828701612158565b92505060406121f6868287016120a3565b9150509250925092565b60006020828403121561221657612215611f0b565b5b600061222484828501612158565b91505092915050565b61223681612082565b82525050565b6000602082019050612251600083018461222d565b92915050565b600080fd5b600080fd5b7f4e487b7100000000000000000000000000000000000000000000000000000000600052604160045260246000fd5b61229982612016565b810181811067ffffffffffffffff821117156122b8576122b7612261565b5b80604052505050565b60006122cb611f01565b90506122d78282612290565b919050565b600067ffffffffffffffff8211156122f7576122f6612261565b5b61230082612016565b9050602081019050919050565b82818337600083830152505050565b600061232f61232a846122dc565b6122c1565b90508281526020810184848401111561234b5761234a61225c565b5b61235684828561230d565b509392505050565b600082601f83011261237357612372612257565b5b813561238384826020860161231c565b91505092915050565b6000806000606084860312156123a5576123a4611f0b565b5b600084013567ffffffffffffffff8111156123c3576123c2611f10565b5b6123cf8682870161235e565b935050602084013567ffffffffffffffff8111156123f0576123ef611f10565b5b6123fc8682870161235e565b925050604061240d86828701612158565b9150509250925092565b61242081611f9a565b811461242b57600080fd5b50565b60008135905061243d81612417565b92915050565b6000806040838503121561245a57612459611f0b565b5b600061246885828601612158565b92505060206124798582860161242e565b9150509250929050565b600067ffffffffffffffff82111561249e5761249d612261565b5b6124a782612016565b9050602081019050919050565b60006124c76124c284612483565b6122c1565b9050828152602081018484840111156124e3576124e261225c565b5b6124ee84828561230d565b509392505050565b600082601f83011261250b5761250a612257565b5b813561251b8482602086016124b4565b91505092915050565b6000806000806080858703121561253e5761253d611f0b565b5b600061254c87828801612158565b945050602061255d87828801612158565b935050604061256e878288016120a3565b925050606085013567ffffffffffffffff81111561258f5761258e611f10565b5b61259b878288016124f6565b91505092959194509250565b600080600080600080600080610100898b0312156125c8576125c7611f0b565b5b60006125d68b828c01612158565b985050602089013567ffffffffffffffff8111156125f7576125f6611f10565b5b6126038b828c0161235e565b975050604089013567ffffffffffffffff81111561262457612623611f10565b5b6126308b828c0161235e565b965050606089013567ffffffffffffffff81111561265157612650611f10565b5b61265d8b828c0161235e565b955050608061266e8b828c016120a3565b94505060a061267f8b828c016120a3565b93505060c06126908b828c0161242e565b92505060e06126a18b828c016120a3565b9150509295985092959890939650565b600080604083850312156126c8576126c7611f0b565b5b60006126d685828601612158565b92505060206126e785828601612158565b9150509250929050565b7f4e487b7100000000000000000000000000000000000000000000000000000000600052602260045260246000fd5b6000600282049050600182168061273857607f821691505b60208210810361274b5761274a6126f1565b5b50919050565b7f4552433732313a20617070726f76616c20746f2063757272656e74206f776e6560008201527f7200000000000000000000000000000000000000000000000000000000000000602082015250565b60006127ad602183611fdb565b91506127b882612751565b604082019050919050565b600060208201905081810360008301526127dc816127a0565b9050919050565b7f4552433732313a20617070726f76652063616c6c6572206973206e6f7420746f60008201527f6b656e206f776e6572206f7220617070726f76656420666f7220616c6c000000602082015250565b600061283f603d83611fdb565b915061284a826127e3565b604082019050919050565b6000602082019050818103600083015261286e81612832565b9050919050565b7f4552433732313a2063616c6c6572206973206e6f7420746f6b656e206f776e6560008201527f72206f7220617070726f76656400000000000000000000000000000000000000602082015250565b60006128d1602d83611fdb565b91506128dc82612875565b604082019050919050565b60006020820190508181036000830152612900816128c4565b9050919050565b7f4552433732313a20696e76616c696420746f6b656e2049440000000000000000600082015250565b600061293d601883611fdb565b915061294882612907565b602082019050919050565b6000602082019050818103600083015261296c81612930565b9050919050565b7f4552433732313a2061646472657373207a65726f206973206e6f74206120766160008201527f6c6964206f776e65720000000000000000000000000000000000000000000000602082015250565b60006129cf602983611fdb565b91506129da82612973565b604082019050919050565b600060208201905081810360008301526129fe816129c2565b9050919050565b7f4e6f2073756666696369656e7420726967687400000000000000000000000000600082015250565b6000612a3b601383611fdb565b9150612a4682612a05565b602082019050919050565b60006020820190508181036000830152612a6a81612a2e565b9050919050565b60008190508160005260206000209050919050565b60006020601f8301049050919050565b600082821b905092915050565b600060088302612ad37fffffffffffffffffffffffffffffffffffffffffffffffffffffffffffffffff82612a96565b612add8683612a96565b95508019841693508086168417925050509392505050565b6000819050919050565b6000612b1a612b15612b1084612082565b612af5565b612082565b9050919050565b6000819050919050565b612b3483612aff565b612b48612b4082612b21565b848454612aa3565b825550505050565b600090565b612b5d612b50565b612b68818484612b2b565b505050565b5b81811015612b8c57612b81600082612b55565b600181019050612b6e565b5050565b601f821115612bd157612ba281612a71565b612bab84612a86565b81016020851015612bba578190505b612bce612bc685612a86565b830182612b6d565b50505b505050565b600082821c905092915050565b6000612bf460001984600802612bd6565b1980831691505092915050565b6000612c0d8383612be3565b9150826002028217905092915050565b612c2682611fd0565b67ffffffffffffffff811115612c3f57612c3e612261565b5b612c498254612720565b612c54828285612b90565b600060209050601f831160018114612c875760008415612c75578287015190505b612c7f8582612c01565b865550612ce7565b601f198416612c9586612a71565b60005b82811015612cbd57848901518255600182019150602085019450602081019050612c98565b86831015612cda5784890151612cd6601f891682612be3565b8355505b6001600288020188555050505b505050505050565b7f4e487b7100000000000000000000000000000000000000000000000000000000600052601160045260246000fd5b6000612d2982612082565b91507fffffffffffffffffffffffffffffffffffffffffffffffffffffffffffffffff8203612d5b57612d5a612cef565b5b600182019050919050565b7f4e6565647320746f2062652076616c696420696e737469747574650000000000600082015250565b6000612d9c601b83611fdb565b9150612da782612d66565b602082019050919050565b60006020820190508181036000830152612dcb81612d8f565b9050919050565b600081905092915050565b6000612de882611fd0565b612df28185612dd2565b9350612e02818560208601611fec565b80840191505092915050565b6000612e1a8285612ddd565b9150612e268284612ddd565b91508190509392505050565b7f4552433732313a207472616e736665722066726f6d20696e636f72726563742060008201527f6f776e6572000000000000000000000000000000000000000000000000000000602082015250565b6000612e8e602583611fdb565b9150612e9982612e32565b604082019050919050565b60006020820190508181036000830152612ebd81612e81565b9050919050565b7f4552433732313a207472616e7366657220746f20746865207a65726f2061646460008201527f7265737300000000000000000000000000000000000000000000000000000000602082015250565b6000612f20602483611fdb565b9150612f2b82612ec4565b604082019050919050565b60006020820190508181036000830152612f4f81612f13565b9050919050565b7f4552433732313a20617070726f766520746f2063616c6c657200000000000000600082015250565b6000612f8c601983611fdb565b9150612f9782612f56565b602082019050919050565b60006020820190508181036000830152612fbb81612f7f565b9050919050565b7f4552433732313a207472616e7366657220746f206e6f6e20455243373231526560008201527f63656976657220696d706c656d656e7465720000000000000000000000000000602082015250565b600061301e603283611fdb565b915061302982612fc2565b604082019050919050565b6000602082019050818103600083015261304d81613011565b9050919050565b7f4552433732313a206d696e7420746f20746865207a65726f2061646472657373600082015250565b600061308a602083611fdb565b915061309582613054565b602082019050919050565b600060208201905081810360008301526130b98161307d565b9050919050565b7f4552433732313a20746f6b656e20616c7265616479206d696e74656400000000600082015250565b60006130f6601c83611fdb565b9150613101826130c0565b602082019050919050565b60006020820190508181036000830152613125816130e9565b9050919050565b7f696e737469747574655f6e616d65000000000000000000000000000000000000600082015250565b6000613162600e83612dd2565b915061316d8261312c565b600e82019050919050565b7f6578705f747970653a0000000000000000000000000000000000000000000000600082015250565b60006131ae600983612dd2565b91506131b982613178565b600982019050919050565b7f2c207469746c653a000000000000000000000000000000000000000000000000600082015250565b60006131fa600883612dd2565b9150613205826131c4565b600882019050919050565b7f2c2073746172745f646174653a00000000000000000000000000000000000000600082015250565b6000613246600d83612dd2565b915061325182613210565b600d82019050919050565b6000819050919050565b61327761327282612082565b61325c565b82525050565b7f2c20656e645f646174653a000000000000000000000000000000000000000000600082015250565b60006132b3600b83612dd2565b91506132be8261327d565b600b82019050919050565b7f2c206861735f6578706972793a00000000000000000000000000000000000000600082015250565b60006132ff600d83612dd2565b915061330a826132c9565b600d82019050919050565b60008160f81b9050919050565b600061332d82613315565b9050919050565b600061333f82613322565b9050919050565b61335761335282611f9a565b613334565b82525050565b7f2c206578706972795f646174653a000000000000000000000000000000000000600082015250565b6000613393600e83612dd2565b915061339e8261335d565b600e82019050919050565b7f2c206465736372697074696f6e3a000000000000000000000000000000000000600082015250565b60006133df600e83612dd2565b91506133ea826133a9565b600e82019050919050565b600061340082613155565b915061340c828b612ddd565b9150613417826131a1565b9150613423828a612ddd565b915061342e826131ed565b915061343a8289612ddd565b915061344582613239565b91506134518288613266565b602082019150613460826132a6565b915061346c8287613266565b60208201915061347b826132f2565b91506134878286613346565b60018201915061349682613386565b91506134a28285613266565b6020820191506134b1826133d2565b91506134bd8284612ddd565b91508190509998505050505050505050565b7f45524337323155524953746f726167653a2055524920736574206f66206e6f6e60008201527f6578697374656e7420746f6b656e000000000000000000000000000000000000602082015250565b600061352b602e83611fdb565b9150613536826134cf565b604082019050919050565b6000602082019050818103600083015261355a8161351e565b9050919050565b600061356c82612082565b915061357783612082565b925082820390508181111561358f5761358e612cef565b5b92915050565b60006135a082612082565b91506135ab83612082565b92508282019050808211156135c3576135c2612cef565b5b92915050565b600081519050919050565b600082825260208201905092915050565b60006135f0826135c9565b6135fa81856135d4565b935061360a818560208601611fec565b61361381612016565b840191505092915050565b60006080820190506136336000830187612117565b6136406020830186612117565b61364d604083018561222d565b818103606083015261365f81846135e5565b905095945050505050565b60008151905061367981611f41565b92915050565b60006020828403121561369557613694611f0b565b5b60006136a38482850161366a565b91505092915050565b7f4e487b7100000000000000000000000000000000000000000000000000000000600052601260045260246000fdfea2646970667358221220f3b0afd8645cf33d69fd8eb412717dba5a1a12d3ca9ea0cec16ce78faf0e38f164736f6c63430008110033",
  "linkReferences": {},
  "deployedLinkReferences": {}
}