{
  "_format": "hh-sol-artifact-1",
  "contractName": "Institute",
  "sourceName": "contracts/institutes.sol",
  "abi": [
    {
      "inputs": [],
      "stateMutability": "nonpayable",
      "type": "constructor"
    },
    {
      "inputs": [
        {
          "internalType": "string",
          "name": "name",
          "type": "string"
        },
        {
          "internalType": "string",
          "name": "description",
          "type": "string"
        },
        {
          "internalType": "address",
          "name": "institute_adress",
          "type": "address"
        }
      ],
      "name": "addInstitute",
      "outputs": [],
      "stateMutability": "nonpayable",
      "type": "function"
    },
    {
      "inputs": [
        {
          "internalType": "address",
          "name": "institute_adress",
          "type": "address"
        }
      ],
      "name": "is_valid_institute",
      "outputs": [
        {
          "internalType": "bool",
          "name": "",
          "type": "bool"
        }
      ],
      "stateMutability": "nonpayable",
      "type": "function"
    }
  ],
  "bytecode": "0x608060405234801561001057600080fd5b50336000806101000a81548173ffffffffffffffffffffffffffffffffffffffff021916908373ffffffffffffffffffffffffffffffffffffffff160217905550610871806100606000396000f3fe608060405234801561001057600080fd5b50600436106100365760003560e01c80636f38c4881461003b5780638f8e94c91461006b575b600080fd5b61005560048036038101906100509190610297565b610087565b60405161006291906102df565b60405180910390f35b61008560048036038101906100809190610440565b6100e0565b005b6000600160008373ffffffffffffffffffffffffffffffffffffffff1673ffffffffffffffffffffffffffffffffffffffff16815260200190815260200160002060020160009054906101000a900460ff169050919050565b3373ffffffffffffffffffffffffffffffffffffffff1660008054906101000a900473ffffffffffffffffffffffffffffffffffffffff1673ffffffffffffffffffffffffffffffffffffffff161461016e576040517f08c379a000000000000000000000000000000000000000000000000000000000815260040161016590610528565b60405180910390fd5b6000604051806060016040528085815260200184815260200160011515815250905080600160008473ffffffffffffffffffffffffffffffffffffffff1673ffffffffffffffffffffffffffffffffffffffff16815260200190815260200160002060008201518160000190816101e59190610769565b5060208201518160010190816101fb9190610769565b5060408201518160020160006101000a81548160ff02191690831515021790555090505050505050565b6000604051905090565b600080fd5b600080fd5b600073ffffffffffffffffffffffffffffffffffffffff82169050919050565b600061026482610239565b9050919050565b61027481610259565b811461027f57600080fd5b50565b6000813590506102918161026b565b92915050565b6000602082840312156102ad576102ac61022f565b5b60006102bb84828501610282565b91505092915050565b60008115159050919050565b6102d9816102c4565b82525050565b60006020820190506102f460008301846102d0565b92915050565b600080fd5b600080fd5b6000601f19601f8301169050919050565b7f4e487b7100000000000000000000000000000000000000000000000000000000600052604160045260246000fd5b61034d82610304565b810181811067ffffffffffffffff8211171561036c5761036b610315565b5b80604052505050565b600061037f610225565b905061038b8282610344565b919050565b600067ffffffffffffffff8211156103ab576103aa610315565b5b6103b482610304565b9050602081019050919050565b82818337600083830152505050565b60006103e36103de84610390565b610375565b9050828152602081018484840111156103ff576103fe6102ff565b5b61040a8482856103c1565b509392505050565b600082601f830112610427576104266102fa565b5b81356104378482602086016103d0565b91505092915050565b6000806000606084860312156104595761045861022f565b5b600084013567ffffffffffffffff81111561047757610476610234565b5b61048386828701610412565b935050602084013567ffffffffffffffff8111156104a4576104a3610234565b5b6104b086828701610412565b92505060406104c186828701610282565b9150509250925092565b600082825260208201905092915050565b7f4e6f2073756666696369656e7420726967687400000000000000000000000000600082015250565b60006105126013836104cb565b915061051d826104dc565b602082019050919050565b6000602082019050818103600083015261054181610505565b9050919050565b600081519050919050565b7f4e487b7100000000000000000000000000000000000000000000000000000000600052602260045260246000fd5b6000600282049050600182168061059a57607f821691505b6020821081036105ad576105ac610553565b5b50919050565b60008190508160005260206000209050919050565b60006020601f8301049050919050565b600082821b905092915050565b6000600883026106157fffffffffffffffffffffffffffffffffffffffffffffffffffffffffffffffff826105d8565b61061f86836105d8565b95508019841693508086168417925050509392505050565b6000819050919050565b6000819050919050565b600061066661066161065c84610637565b610641565b610637565b9050919050565b6000819050919050565b6106808361064b565b61069461068c8261066d565b8484546105e5565b825550505050565b600090565b6106a961069c565b6106b4818484610677565b505050565b5b818110156106d8576106cd6000826106a1565b6001810190506106ba565b5050565b601f82111561071d576106ee816105b3565b6106f7846105c8565b81016020851015610706578190505b61071a610712856105c8565b8301826106b9565b50505b505050565b600082821c905092915050565b600061074060001984600802610722565b1980831691505092915050565b6000610759838361072f565b9150826002028217905092915050565b61077282610548565b67ffffffffffffffff81111561078b5761078a610315565b5b6107958254610582565b6107a08282856106dc565b600060209050601f8311600181146107d357600084156107c1578287015190505b6107cb858261074d565b865550610833565b601f1984166107e1866105b3565b60005b82811015610809578489015182556001820191506020850194506020810190506107e4565b868310156108265784890151610822601f89168261072f565b8355505b6001600288020188555050505b50505050505056fea2646970667358221220db9a648dd9eecd5a08e0bf15fa2189c47ab45a102a58b0b649a39466dea0252364736f6c63430008110033",
  "linkReferences": {},
  "deployedLinkReferences": {}
}