{
  "_format": "hh-sol-artifact-1",
  "contractName": "Institute",
  "sourceName": "contracts/institutes.sol",
  "abi": [
    {
      "inputs": [],
      "stateMutability": "nonpayable",
      "type": "constructor"
    },
    {
      "inputs": [
        {
          "internalType": "string",
          "name": "name",
          "type": "string"
        },
        {
          "internalType": "string",
          "name": "description",
          "type": "string"
        },
        {
          "internalType": "address",
          "name": "institute_adress",
          "type": "address"
        }
      ],
      "name": "addInstitute",
      "outputs": [],
      "stateMutability": "nonpayable",
      "type": "function"
    },
    {
      "inputs": [],
      "name": "instituteCount",
      "outputs": [
        {
          "internalType": "uint256",
          "name": "",
          "type": "uint256"
        }
      ],
      "stateMutability": "view",
      "type": "function"
    },
    {
      "inputs": [
        {
          "internalType": "address",
          "name": "_admin",
          "type": "address"
        }
      ],
      "name": "is_admin",
      "outputs": [
        {
          "internalType": "bool",
          "name": "",
          "type": "bool"
        }
      ],
      "stateMutability": "nonpayable",
      "type": "function"
    },
    {
      "inputs": [
        {
          "internalType": "address",
          "name": "_institute",
          "type": "address"
        }
      ],
      "name": "is_institute",
      "outputs": [
        {
          "internalType": "bool",
          "name": "",
          "type": "bool"
        }
      ],
      "stateMutability": "nonpayable",
      "type": "function"
    }
  ],
  "bytecode": "0x608060405234801561001057600080fd5b50336000806101000a81548173ffffffffffffffffffffffffffffffffffffffff021916908373ffffffffffffffffffffffffffffffffffffffff160217905550610a02806100606000396000f3fe608060405234801561001057600080fd5b506004361061004c5760003560e01c80638f8e94c914610051578063a673dd4b1461006d578063aac132de1461009d578063fefb21a4146100cd575b600080fd5b61006b600480360381019061006691906104cd565b6100eb565b005b61008760048036038101906100829190610558565b610248565b60405161009491906105a0565b60405180910390f35b6100b760048036038101906100b29190610558565b6102b2565b6040516100c491906105a0565b60405180910390f35b6100d561030b565b6040516100e291906105d4565b60405180910390f35b3373ffffffffffffffffffffffffffffffffffffffff1660008054906101000a900473ffffffffffffffffffffffffffffffffffffffff1673ffffffffffffffffffffffffffffffffffffffff1614610179576040517f08c379a00000000000000000000000000000000000000000000000000000000081526004016101709061064c565b60405180910390fd5b6000604051806060016040528085815260200184815260200160011515815250905080600260008473ffffffffffffffffffffffffffffffffffffffff1673ffffffffffffffffffffffffffffffffffffffff16815260200190815260200160002060008201518160000190816101f09190610883565b5060208201518160010190816102069190610883565b5060408201518160020160006101000a81548160ff0219169083151502179055509050506001600081548092919061023d90610984565b919050555050505050565b6000600260008373ffffffffffffffffffffffffffffffffffffffff1673ffffffffffffffffffffffffffffffffffffffff16815260200190815260200160002060020160009054906101000a900460ff16156102a857600190506102ad565b600090505b919050565b60008060009054906101000a900473ffffffffffffffffffffffffffffffffffffffff1673ffffffffffffffffffffffffffffffffffffffff168273ffffffffffffffffffffffffffffffffffffffff16149050919050565b6000600154905090565b6000604051905090565b600080fd5b600080fd5b600080fd5b600080fd5b6000601f19601f8301169050919050565b7f4e487b7100000000000000000000000000000000000000000000000000000000600052604160045260246000fd5b61037c82610333565b810181811067ffffffffffffffff8211171561039b5761039a610344565b5b80604052505050565b60006103ae610315565b90506103ba8282610373565b919050565b600067ffffffffffffffff8211156103da576103d9610344565b5b6103e382610333565b9050602081019050919050565b82818337600083830152505050565b600061041261040d846103bf565b6103a4565b90508281526020810184848401111561042e5761042d61032e565b5b6104398482856103f0565b509392505050565b600082601f83011261045657610455610329565b5b81356104668482602086016103ff565b91505092915050565b600073ffffffffffffffffffffffffffffffffffffffff82169050919050565b600061049a8261046f565b9050919050565b6104aa8161048f565b81146104b557600080fd5b50565b6000813590506104c7816104a1565b92915050565b6000806000606084860312156104e6576104e561031f565b5b600084013567ffffffffffffffff81111561050457610503610324565b5b61051086828701610441565b935050602084013567ffffffffffffffff81111561053157610530610324565b5b61053d86828701610441565b925050604061054e868287016104b8565b9150509250925092565b60006020828403121561056e5761056d61031f565b5b600061057c848285016104b8565b91505092915050565b60008115159050919050565b61059a81610585565b82525050565b60006020820190506105b56000830184610591565b92915050565b6000819050919050565b6105ce816105bb565b82525050565b60006020820190506105e960008301846105c5565b92915050565b600082825260208201905092915050565b7f4e6f2073756666696369656e7420726967687400000000000000000000000000600082015250565b60006106366013836105ef565b915061064182610600565b602082019050919050565b6000602082019050818103600083015261066581610629565b9050919050565b600081519050919050565b7f4e487b7100000000000000000000000000000000000000000000000000000000600052602260045260246000fd5b600060028204905060018216806106be57607f821691505b6020821081036106d1576106d0610677565b5b50919050565b60008190508160005260206000209050919050565b60006020601f8301049050919050565b600082821b905092915050565b6000600883026107397fffffffffffffffffffffffffffffffffffffffffffffffffffffffffffffffff826106fc565b61074386836106fc565b95508019841693508086168417925050509392505050565b6000819050919050565b600061078061077b610776846105bb565b61075b565b6105bb565b9050919050565b6000819050919050565b61079a83610765565b6107ae6107a682610787565b848454610709565b825550505050565b600090565b6107c36107b6565b6107ce818484610791565b505050565b5b818110156107f2576107e76000826107bb565b6001810190506107d4565b5050565b601f82111561083757610808816106d7565b610811846106ec565b81016020851015610820578190505b61083461082c856106ec565b8301826107d3565b50505b505050565b600082821c905092915050565b600061085a6000198460080261083c565b1980831691505092915050565b60006108738383610849565b9150826002028217905092915050565b61088c8261066c565b67ffffffffffffffff8111156108a5576108a4610344565b5b6108af82546106a6565b6108ba8282856107f6565b600060209050601f8311600181146108ed57600084156108db578287015190505b6108e58582610867565b86555061094d565b601f1984166108fb866106d7565b60005b82811015610923578489015182556001820191506020850194506020810190506108fe565b86831015610940578489015161093c601f891682610849565b8355505b6001600288020188555050505b505050505050565b7f4e487b7100000000000000000000000000000000000000000000000000000000600052601160045260246000fd5b600061098f826105bb565b91507fffffffffffffffffffffffffffffffffffffffffffffffffffffffffffffffff82036109c1576109c0610955565b5b60018201905091905056fea2646970667358221220f01e3d22fd2362769fd2b118e8b2921d3a59cacc6bcaa53f14ecf2a7d264234264736f6c63430008110033",
  "linkReferences": {},
  "deployedLinkReferences": {}
}