{
  "_format": "hh-sol-artifact-1",
  "contractName": "Institute",
  "sourceName": "contracts/institutes.sol",
  "abi": [
    {
      "inputs": [],
      "stateMutability": "nonpayable",
      "type": "constructor"
    },
    {
      "inputs": [
        {
          "internalType": "string",
          "name": "name",
          "type": "string"
        },
        {
          "internalType": "string",
          "name": "description",
          "type": "string"
        },
        {
          "internalType": "address",
          "name": "institute_adress",
          "type": "address"
        }
      ],
      "name": "addInstitute",
      "outputs": [],
      "stateMutability": "nonpayable",
      "type": "function"
    },
    {
      "inputs": [],
      "name": "instituteCount",
      "outputs": [
        {
          "internalType": "uint256",
          "name": "",
          "type": "uint256"
        }
      ],
      "stateMutability": "view",
      "type": "function"
    }
  ],
  "bytecode": "0x608060405234801561001057600080fd5b50336000806101000a81548173ffffffffffffffffffffffffffffffffffffffff021916908373ffffffffffffffffffffffffffffffffffffffff1602179055506000600181905550610866806100686000396000f3fe608060405234801561001057600080fd5b50600436106100365760003560e01c80638f8e94c91461003b578063fefb21a414610057575b600080fd5b61005560048036038101906100509190610394565b610075565b005b61005f6101d2565b60405161006c9190610438565b60405180910390f35b3373ffffffffffffffffffffffffffffffffffffffff1660008054906101000a900473ffffffffffffffffffffffffffffffffffffffff1673ffffffffffffffffffffffffffffffffffffffff1614610103576040517f08c379a00000000000000000000000000000000000000000000000000000000081526004016100fa906104b0565b60405180910390fd5b6000604051806060016040528085815260200184815260200160011515815250905080600260008473ffffffffffffffffffffffffffffffffffffffff1673ffffffffffffffffffffffffffffffffffffffff168152602001908152602001600020600082015181600001908161017a91906106e7565b50602082015181600101908161019091906106e7565b5060408201518160020160006101000a81548160ff021916908315150217905550905050600160008154809291906101c7906107e8565b919050555050505050565b6000600154905090565b6000604051905090565b600080fd5b600080fd5b600080fd5b600080fd5b6000601f19601f8301169050919050565b7f4e487b7100000000000000000000000000000000000000000000000000000000600052604160045260246000fd5b610243826101fa565b810181811067ffffffffffffffff821117156102625761026161020b565b5b80604052505050565b60006102756101dc565b9050610281828261023a565b919050565b600067ffffffffffffffff8211156102a1576102a061020b565b5b6102aa826101fa565b9050602081019050919050565b82818337600083830152505050565b60006102d96102d484610286565b61026b565b9050828152602081018484840111156102f5576102f46101f5565b5b6103008482856102b7565b509392505050565b600082601f83011261031d5761031c6101f0565b5b813561032d8482602086016102c6565b91505092915050565b600073ffffffffffffffffffffffffffffffffffffffff82169050919050565b600061036182610336565b9050919050565b61037181610356565b811461037c57600080fd5b50565b60008135905061038e81610368565b92915050565b6000806000606084860312156103ad576103ac6101e6565b5b600084013567ffffffffffffffff8111156103cb576103ca6101eb565b5b6103d786828701610308565b935050602084013567ffffffffffffffff8111156103f8576103f76101eb565b5b61040486828701610308565b92505060406104158682870161037f565b9150509250925092565b6000819050919050565b6104328161041f565b82525050565b600060208201905061044d6000830184610429565b92915050565b600082825260208201905092915050565b7f4e6f2073756666696369656e7420726967687400000000000000000000000000600082015250565b600061049a601383610453565b91506104a582610464565b602082019050919050565b600060208201905081810360008301526104c98161048d565b9050919050565b600081519050919050565b7f4e487b7100000000000000000000000000000000000000000000000000000000600052602260045260246000fd5b6000600282049050600182168061052257607f821691505b602082108103610535576105346104db565b5b50919050565b60008190508160005260206000209050919050565b60006020601f8301049050919050565b600082821b905092915050565b60006008830261059d7fffffffffffffffffffffffffffffffffffffffffffffffffffffffffffffffff82610560565b6105a78683610560565b95508019841693508086168417925050509392505050565b6000819050919050565b60006105e46105df6105da8461041f565b6105bf565b61041f565b9050919050565b6000819050919050565b6105fe836105c9565b61061261060a826105eb565b84845461056d565b825550505050565b600090565b61062761061a565b6106328184846105f5565b505050565b5b818110156106565761064b60008261061f565b600181019050610638565b5050565b601f82111561069b5761066c8161053b565b61067584610550565b81016020851015610684578190505b61069861069085610550565b830182610637565b50505b505050565b600082821c905092915050565b60006106be600019846008026106a0565b1980831691505092915050565b60006106d783836106ad565b9150826002028217905092915050565b6106f0826104d0565b67ffffffffffffffff8111156107095761070861020b565b5b610713825461050a565b61071e82828561065a565b600060209050601f831160018114610751576000841561073f578287015190505b61074985826106cb565b8655506107b1565b601f19841661075f8661053b565b60005b8281101561078757848901518255600182019150602085019450602081019050610762565b868310156107a457848901516107a0601f8916826106ad565b8355505b6001600288020188555050505b505050505050565b7f4e487b7100000000000000000000000000000000000000000000000000000000600052601160045260246000fd5b60006107f38261041f565b91507fffffffffffffffffffffffffffffffffffffffffffffffffffffffffffffffff8203610825576108246107b9565b5b60018201905091905056fea2646970667358221220c4f0f5b8717ec14a6149b73be446eea1bd651745860cb34edaf91f29da20be6c64736f6c63430008110033",
  "linkReferences": {},
  "deployedLinkReferences": {}
}